:100000000C9482000C94AA000C94AA000C94AA00F0
:100010000C94AA000C94AA000C94AA000C94AA00B8
:100020000C94AA000C94AA000C94AA000C94D0077B
:100030000C94AA000C94AA000C94AA000C94AA0098
:100040000C9406090C94AA000C94CC080C9491080A
:100050000C94AA000C94AA000C94AA000C94AA0078
:100060000C94A9060C94AA005B20204F4B20205D25
:10007000204148525320696E697469616C697A61E4
:1000800074696F6E20636F6D706C65746573005B6F
:10009000204641494C205D204661696C757265209F
:1000A000696E697469616C697A696E67204148524A
:1000B00053000000000700020100000304060000D6
:1000C00000000000000000000000250028002B00B8
:1000D00000000000240027002A0004040404040493
:1000E00004040202020202020303030303030102E7
:1000F00004081020408001020408102001020408B6
:100100001020DD0911241FBECFEFD4E0DEBFCDBF2C
:1001100011E0A0E0B1E0E6E7FCE102C005900D923D
:10012000AC3DB107D9F723E0ACEDB1E001C01D92C1
:10013000AD38B207E1F710E0C2E8D0E004C0219783
:10014000FE010E94330EC138D107C9F70E94E509AC
:100150000C94960B0C9400000F931F93CF93DF9396
:10016000C7E6D3E0E881F9810190F081E02D6DE0F0
:10017000CE0109958C01E881F9810190F081E02D93
:100180006AE0CE010995800F911FDF91CF911F91F9
:100190000F91089590E0FC01E251FF4F2491FC0182
:1001A000E652FF4F8491882399F090E0880F991FC1
:1001B000FC01E053FF4FA591B491FC01EA53FF4FBE
:1001C000859194918FB7F894EC91E22BEC938FBFCB
:1001D00008950F931F93CF93DF9300E010E0FC018D
:1001E0006491EC012196662371F0E0916703F09130
:1001F00068030190F081E02D87E693E00995080FF0
:10020000191FCE01ECCF0E94AC00800F911FDF912F
:10021000CF911F910F910895613208F045C09091E0
:1002200046039111FCCF22E02093460321E0209366
:1002300045032FEF2093440310924303609342033E
:10024000E7E4F3E0A2E2B3E020E0621721F03191AD
:100250003D932F5FFACF1092210320912103880F45
:10026000822B8093210380912003813041F41092EE
:100270002003809121038093BB0085EC01C085EEB3
:100280008093BC00809146038230E1F38091440367
:100290008F3F79F080914403803241F08091440394
:1002A000803331F094E005C091E003C092E001C0DA
:1002B00093E0892F08956132F0F5909146039111F2
:1002C000FCCF91E090934603909345032FEF20934A
:1002D000440310924303260F20934203909321037B
:1002E00090912103880F892B809321038091200313
:1002F000813041F410922003809121038093BB0050
:1003000085EC01C085EE8093BC008091460381306E
:10031000E1F380914303861710F460914303E2E216
:10032000F3E0A0EFB2E080E0861721F091919D9379
:100330008F5FFACF089580E0089585ED8093BC002B
:100340008091BC0084FDFCCF109246030895613279
:1003500098F420914603243089F46093CB02282F2F
:10036000ABEAB2E0FC018E2F821B861718F4819154
:100370008D93F9CF80E0089581E0089582E008959B
:1003800090E0FC01EE54FF4F2491FC01E251FF4F3D
:100390003491FC01E652FF4FE491EE2309F43CC096
:1003A000222339F1233091F038F42130A9F02230A2
:1003B00001F584B58F7D12C0263091F02730A1F071
:1003C0002430B9F4809180008F7D03C0809180003B
:1003D0008F77809380000DC084B58F7784BD09C06E
:1003E0008091B0008F7703C08091B0008F7D8093A3
:1003F000B000F0E0EE0FFF1FEA53FF4FA591B4915C
:100400009FB7F894611104C08C913095382302C0D5
:10041000EC913E2B3C939FBF08951092460381E0E0
:10042000809345031092200361E082E10E94C001A5
:1004300061E083E10E94C001E9EBF0E080818E7F02
:10044000808380818D7F808388E48093B80085E4F9
:100450008093BC000895CF92DF92EF92FF92CF93EA
:10046000DF93EC01603282E078070CF03DC077FD4D
:1004700006C0653B71052CF064EB70E002C060E0E3
:1004800070E0898128E830E06901C81AD10887FD49
:10049000D394CC0CDD1CCC0CDD1C0D2C000CEE0818
:1004A000FF088A8128E532E0281B310987FD339552
:1004B000220F331F220F331FC901330FAA0BBB0BAF
:1004C0009C01AD012C193D094E095F09DB010E9419
:1004D000C30B24EB30E040E050E00E94990BC20EC9
:1004E000D31EE41EF51EB60138813C3080F529810B
:1004F00088E890E0821B910927FD9395880F991F4A
:10050000880F991F6817790784F08A8148E552E0BF
:10051000481B510987FD5395440F551F440F551F24
:10052000CB01461757070CF4CA014FB7F894232F95
:1005300030E0F901EE0FFF1F2E0F3F1FF901E957C1
:10054000FD4F0297880F991F928381834FBFDF91E0
:10055000CF91FF90EF90DF90CF9008951F93CF93AE
:10056000DF93EC01162F88818C3008F04DC0862F68
:100570000E94CA008881E82FF0E09F01220F331FFC
:10058000E20FF31FE957FD4F1F739081907C192BE9
:10059000108319821A826CE00E94270E9CE0899FCA
:1005A000B001112440E050E09B01240F351FF901F8
:1005B000EE0FFF1F2E0F3F1FF901E957FD4F9081EE
:1005C00096FD16C04F5F5F4F4C30510569F78111A2
:1005D0000FC01092800082E080938100109285000D
:1005E00010928400B19A80916F00826080936F00B6
:1005F000E881F0E0CF01880F991FE80FF91FE95754
:10060000FD4F8081806480838881DF91CF911F912D
:1006100008950895E091EF028091EE02E81730F41A
:10062000F0E0E051FD4F808190E008958FEF9FEF63
:1006300008959091EF028091EE02981750F4E92FFF
:10064000F0E0E051FD4F208130E09F5F9093EF029A
:1006500002C02FEF3FEFC90108958091EE0290E0B4
:100660002091EF02821B91090895CF92DF92EF92C1
:10067000FF920F931F93CF93DF937C01CB018A01ED
:1006800020911303222389F0EB016B01C40ED51EC8
:10069000CC15DD0569F06991D701ED91FC910190D0
:1006A000F081E02DC7010995F3CF642F0E94A701C7
:1006B000C801DF91CF911F910F91FF90EF90DF90D4
:1006C000CF900895CF93DF931F92CDB7DEB76983A4
:1006D000209113032223D1F020911003203240F007
:1006E00021E030E0FC013383228380E090E015C0FC
:1006F00080911103E82FF0E0E95BFC4F9981908332
:100700008F5F809311038093100305C061E0CE01D9
:1007100001960E94A70181E090E00F90DF91CF91B8
:10072000089560911003809112030E940C011092B1
:100730001103109210031092130308951F93CF9387
:10074000DF93162FC4E1D3E09B8121E020931303B4
:10075000909312031092110310921003AC81BD818B
:10076000ED91FC9111970190F081E02D682FCD0162
:1007700009958C819D81DC01ED91FC910190F081C6
:10078000E02D612F09958C819D810E94910381E06C
:10079000DF91CF911F910895CF93DF93C4E1D3E010
:1007A0008B8191E0909313038093120310921103B5
:1007B000109210038C819D81DC01ED91FC910190E0
:1007C000F081E02D60E009958C819D810E9491036C
:1007D00061E08B810E945B011092EF028093EE0238
:1007E0008C819D81DC01ED91FC910680F781E02DEB
:1007F0000995DF91CF9108950F931F93CF93DF93C6
:10080000FC01A685B7858D01005C1F4FE80188813A
:10081000998101968F739927AD014E5B5F4FEA0175
:100820002881398128173907D1F3E80128813981D6
:10083000A20FB31F6C93A685B785A05CBF4F11961E
:100840009C938E93A689B7892C9181E090E0078CC8
:1008500002C0880F991F0A94E2F7822B8C9381E0E3
:1008600081A30488F589E02D80818064808381E004
:1008700090E0DF91CF911F910F910895FC0181A12C
:10088000882329F0A489B5898C9186FFFBCF11A21A
:100890000895FC01A485B585FD01E05CFF4F208132
:1008A00031813296808191812817390779F08081D2
:1008B0009181A80FB91F8C91208131812F5F3F4F0B
:1008C0002F7333273183208390E008958FEF9FEFBC
:1008D0000895DC011C96ED91FC911D97DF01A05C51
:1008E000BF4F2D913C91119712968D919C9111972C
:1008F0002817390739F08D919C91E80FF91F8081F5
:1009000090E008958FEF9FEF0895FC0124853585D1
:10091000F901E05CFF4F8081918132962081318125
:10092000821B930B8F73992708950895CF92DF92BE
:10093000EF92FF920F931F93CF93DF936C01EB0124
:100940007B01E40EF51E00E010E0CE15DF0561F03E
:100950006991D601ED91FC910190F081E02DC601E5
:100960000995080F191FF1CFC801DF91CF911F9191
:100970000F91FF90EF90DF90CF900895789484B519
:10098000826084BD84B5816084BD85B5826085BD8B
:1009900085B5816085BDEEE6F0E080818160808371
:1009A000E1E8F0E010828081826080838081816054
:1009B0008083E0E8F0E0808181608083E1EBF0E01B
:1009C000808184608083E0EBF0E0808181608083BF
:1009D000EAE7F0E0808184608083808182608083A8
:1009E0008081816080838081806880831092C100D3
:1009F00008953FB7F8948091ED019091EE01A09198
:100A0000EF01B091F00126B5A89B05C02F3F19F06A
:100A10000196A11DB11D3FBFBA2FA92F982F88277E
:100A2000820F911DA11DB11DBC01CD0142E0660FD9
:100A3000771F881F991F4A95D1F70895CF92DF92AB
:100A4000EF92FF92CF93DF936B017C010E94F90438
:100A5000EB01C114D104E104F10479F00E94F9041E
:100A60006C1B7D0B683E7340A0F381E0C81AD1086F
:100A7000E108F108C851DC4FECCFDF91CF91FF9036
:100A8000EF90DF90CF900895E4E1F3E082879387C1
:100A9000682F8DE390E00E949E036EE170E080E09D
:100AA00090E00C941E052FB7F8946091E9017091C5
:100AB000EA018091EB019091EC012FBF0895089518
:100AC0000895CF93DF930097A9F0FC0101900020D7
:100AD000E9F73197AF01481B590BE0916703F0919B
:100AE00068030280F381E02DBC0187E693E009955D
:100AF000EC0102C0C0E0D0E00E94AC008C0F9D1F52
:100B0000DF91CF9108958F929F92AF92BF92CF9233
:100B1000DF92EF92FF920F931F93CF93DF93CDB7A6
:100B2000DEB762970FB6F894DEBF0FBECDBF6C0183
:100B30008B0184E2DB011D928A95E9F784E290E063
:100B4000A0E0B0E0FB0180839183A283B383F60130
:100B500086819781A085B185FB0184839583A683D7
:100B6000B78383E090E0A0E0B0E080879187A28720
:100B7000B3870E945305D80150966D937D938D9352
:100B80009C935397FE0131968CE0DF011D928A956C
:100B9000E9F77E01BDE0EB0EF11C86E0F701119252
:100BA0008A95E9F7D60113968C91139791E090936B
:100BB00013038093120310921103109210031496E2
:100BC0008D919C911597DC01ED91FC910190F08144
:100BD000E02D6AE10995F601848195810E949103D7
:100BE00066E0D60113968C910E945B011092EF0291
:100BF0008093EE025E01B3E1AB0EB11CF60184817D
:100C00009581DC01ED91FC910680F781E02D09953D
:100C1000F70181937F01EA15FB0581F76D857E85DC
:100C2000072E000C880B990B0E942E0D20E030E05F
:100C300040E85DE30E94690D4B015C016F85788996
:100C4000072E000C880B990B0E942E0D20E030E03F
:100C500040E85DE30E94690D6B017C0169897A8936
:100C6000072E000C880B990B0E942E0D20E030E01F
:100C700040E85DE30E94690DD80154968D929D92E3
:100C8000AD92BC925797F801C08ED18EE28EF38E52
:100C90005C966D937D938D939C935F9781E06296B4
:100CA0000FB6F894DEBF0FBECDBFDF91CF911F917D
:100CB0000F91FF90EF90DF90CF90BF90AF909F90FB
:100CC0008F9008950F931F93CF93DF938C01EB01C7
:100CD00088E2FB0111928A95E9F74BE050E064E36A
:100CE00071E0CE010E941D0D1B8681E090E0A0E026
:100CF000B0E08C879D87AE87BF87F801868197819A
:100D0000A085B185888B998BAA8BBB8B83E090E003
:100D1000A0E0B0E08C8B9D8BAE8BBF8B1CA21DA284
:100D20001EA21FA2188E198E1A8E1B8E1C8E1D8E4F
:100D30001E8E1F8E8AE097EDA3E2BCE388A399A3E1
:100D4000AAA3BBA3DF91CF911F910F9108950C949B
:100D5000940C1F920F920FB60F9211242F933F9372
:100D60004F935F936F937F938F939F93AF93BF93B3
:100D7000EF93FF938091B900887F803609F49CC07F
:100D800068F5883209F45BC090F4803109F454C0EE
:100D900038F4882309F4EFC0883009F44DC0EFC05F
:100DA000883109F44CC0803209F45DC0E8C0803459
:100DB00009F468C048F4803309F455C0883309F059
:100DC000DEC080934403D1C0803509F44FC088351C
:100DD00009F45DC0883409F0D2C0CFC0883909F465
:100DE000C0C0A8F4883709F467C038F4883609F41D
:100DF00063C0803709F460C0C2C0883809F4B1C04C
:100E0000803909F45FC0803809F0B9C05BC0803B0D
:100E100009F481C038F4803A09F466C0883A09F4CC
:100E20007AC0ADC0803C09F4A0C0883C09F49DC0E4
:100E3000883B09F483C0A3C08091210310C0909126
:100E4000430380914203981770F5E091430381E0DA
:100E50008E0F80934303F0E0EE5DFC4F8081809322
:100E6000BB0085EC7FC08093440387C0E0914303BF
:100E700081E08E0F809343038091BB00F0E0EE5D34
:100E8000FC4F8083909143038091420367C0E091BF
:100E9000430381E08E0F809343038091BB00F0E019
:100EA000EE5DFC4F808380914503811166C081E037
:100EB0008093200384EA5AC083E080934603109213
:100EC000ED02CFCF8091ED02803208F04AC0E09170
:100ED000ED0281E08E0F8093ED028091BB00F0E087
:100EE000E353FD4F8083BDCF8091ED02803230F41B
:100EF000E091ED02F0E0E353FD4F10820E949D016E
:100F00006091ED0270E08DEC92E0E0E0F0E0099598
:100F10001092ED022AC084E0809346031092CC0226
:100F20001092CB02E0E0F0E009958091CB028111B4
:100F300005C081E08093CB021092AB02E091CC021D
:100F400081E08E0F8093CC02F0E0E555FD4F80816B
:100F50008093BB009091CC028091CB02981708F44B
:100F600080CF85E88093BC000AC085EC8093BC00EC
:100F70001092460304C0109244030E949D01FF9109
:100F8000EF91BF91AF919F918F917F916F915F9101
:100F90004F913F912F910F900FBE0F901F9018957A
:100FA0001F920F920FB60F9211242F933F934F93DE
:100FB0005F936F937F938F939F93AF93BF93EF93C1
:100FC000FF938091850287FF05C0109285001092E3
:100FD00084001BC020918502022E000C330B8091EF
:100FE000860290E02817390784F480918502082E44
:100FF000000C990BFC01EE0FFF1F8E0F9F1FFC01D1
:10100000E957FD4F808186FD15C0809185028F5F75
:101010008093850220918502022E000C330B809173
:10102000860290E028173907C4F4809185028C303D
:1010300064F113C080918502082E000C990BFC010D
:10104000EE0FFF1F8E0F9F1FFC01E957FD4F8081A0
:1010500060E08F730E94C001D8CF8091840090918E
:101060008500049680349C4918F480E49CE905C00E
:1010700080918400909185000496909389008093DC
:1010800088008FEF809385023BC0209184003091CF
:10109000850080918502082E000C990BFC01EE0F53
:1010A000FF1F8E0F9F1FFC01E957FD4F8181928129
:1010B000820F931F9093890080938800809185020E
:1010C000082E000C990BFC01EE0FFF1F8E0F9F1FC7
:1010D000FC01E957FD4F808186FF12C08091850297
:1010E000082E000C990BFC01EE0FFF1F8E0F9F1FA7
:1010F000FC01E957FD4F808161E08F730E94C001C0
:10110000FF91EF91BF91AF919F918F917F916F91DF
:101110005F914F913F912F910F900FBE0F901F90B5
:1011200018951F920F920FB60F9211242F933F9391
:101130008F939F93EF93FF9320913102309132026E
:1011400080913302909134022817390731F480914D
:10115000C1008F7D8093C10014C0E0913302F091F3
:101160003402EF50FE4F208180913302909134027F
:1011700001968F73992790933402809333022093C2
:10118000C600FF91EF919F918F913F912F910F900A
:101190000FBE0F901F9018951F920F920FB60F92CF
:1011A00011242F934F935F938F939F93EF93FF930C
:1011B0008091C00082FD1CC02091C6008091750204
:1011C00090917602409177025091780201968F7348
:1011D00099274817590771F0E0917502F09176024E
:1011E000EB5CFD4F2083909376028093750202C0E2
:1011F0008091C600FF91EF919F918F915F914F91E8
:101200002F910F900FBE0F901F9018951F920F9265
:101210000FB60F9211242F933F938F939F93AF9309
:10122000BF938091E9019091EA01A091EB01B09107
:10123000EC013091E80123E0230F2D3720F40196D3
:10124000A11DB11D05C026E8230F0296A11DB11DE9
:101250002093E8018093E9019093EA01A093EB01C8
:10126000B093EC018091ED019091EE01A091EF011E
:10127000B091F0010196A11DB11D8093ED019093F5
:10128000EE01A093EF01B093F001BF91AF919F9158
:101290008F913F912F910F900FBE0F901F90189537
:1012A000FC01909186029C30A0F481E0890F80932C
:1012B00086029083892F90E0FC01EE0FFF1F8E0FB6
:1012C0009F1FFC01E957FD4F88EB9BE092838183D0
:1012D00008958FEF80830895E9E7F2E01382128288
:1012E00088EE93E0A0E0B0E084839583A683B78383
:1012F00088E291E0918380830895E7E6F3E013822A
:10130000128288EE93E0A0E0B0E084839583A68308
:10131000B78388E191E09183808385E392E09587AC
:10132000848781EF91E09787868785EC90E0918BA9
:10133000808B84EC90E0938B828B80EC90E0958B9B
:10134000848B81EC90E0978B868B82EC90E0918F80
:10135000808F86EC90E0938F828F84E0848F83E08F
:10136000858F87E0868F85E0878F81E080A3089551
:10137000E4E1F3E08AE091E09183808387E390E009
:10138000A0E0B0E086839783A087B18788E283835B
:1013900089E792E095838483089585EE91E00E9429
:1013A000500982EE91E00E9450098FED91E00E9479
:1013B00050098CED91E00C9450090E946C090E9438
:1013C0007D090E94B8090C94CD090E94BE04E091E9
:1013D0007B03F0917C0381E090E09C010090870307
:1013E00002C0220F331F0A94E2F72083E0917703B3
:1013F000F09178031082E0917903F0917A032FEC59
:10140000208310928803E0917D03F0917E03408158
:101410009C010090830302C0220F331F0A94E2F75D
:10142000242B2083E0917D03F0917E0340819C0179
:101430000090840302C0220F331F0A94E2F7242B8A
:101440002083E0917D03F0917E0340819C01009018
:10145000850302C0220F331F0A94E2F7242B208356
:10146000E0917D03F0917E0320810090860302C00D
:10147000880F991F0A94E2F780958223808368EE93
:1014800073E080E090E00E941E051092EF0210923F
:10149000EE0210921103109210030E940D020E949E
:1014A000CC03803A71F480E090E00E94440560E251
:1014B0008FE390E00E949E036EE170E080E090E098
:1014C0000FC068EE73E080E090E00E941E050E946D
:1014D000CC03803A41F38FE890E00E94E9005DC0C0
:1014E0000E941E050E94CC03803A29F06AE070E059
:1014F00080E090E0F5CF62E370E080E090E00E9451
:101500001E0560E08EE390E00E949E036AE070E0BA
:1015100080E090E00E941E0560E087E090E00E947D
:101520009E0360E08FE390E00E949E036AE070E01B
:1015300080E090E00E941E058CE090E00E9444054F
:1015400064E170E080E090E00E941E05C0911E03FF
:10155000D0911F0380E090E00E94440569E170E0B3
:1015600080E090E00E941E0560E087E090E00E942D
:101570009E0360E88FE390E00E949E036AE070E0C3
:1015800080E090E00E941E05CE010E94440564E1C7
:1015900070E080E090E00E941E0588E690E00E94E6
:1015A000E90069E070E085EE91E00E94AE026AE039
:1015B00070E082EE91E00E94AE026BE070E08FED91
:1015C00091E00E94AE026CE070E08CED91E00E9430
:1015D000AE028BE391E00E94610564EB70E085EE62
:1015E00091E00E942B0264EB70E082EE91E00E9499
:1015F0002B0264EB70E08FED91E00E942B0264EB14
:1016000070E08CED91E00E942B0268E873E180E0CD
:1016100090E00E941E0581E591E00E94610560E076
:1016200070E085EE91E00E942B0260E070E082EEB7
:1016300091E00E942B0260E070E08FED91E00E944B
:101640002B0260E070E08CED91E00E942B0260EADA
:101650007FE080E090E00E941E0587E691E00E9416
:10166000610568EE73E080E090E00E941E058AE765
:1016700091E00E94610568EE73E080E090E00E94D6
:101680001E058DE891E00E94610568EE73E080E040
:1016900090E00E941E0580EA91E00E946105C0E092
:1016A000D0E0BE0185EE91E00E942B02BE0182EEE9
:1016B00091E00E942B02BE018FED91E00E942B026F
:1016C000BE018CED91E00E942B0268EC70E080E09E
:1016D00090E00E941E052196C53BD10511F78FEAC7
:1016E00091E00E946105C4EBD0E0BE0185EE91E07F
:1016F0000E942B02BE0182EE91E00E942B02BE01ED
:101700008FED91E00E942B02BE018CED91E00E94D2
:101710002B0268EC70E080E090E00E941E052197AB
:1017200020F783EC91E00E946105FFCFF8940C94C0
:10173000390E052E97FB1EF400940E94B00B57FD46
:1017400007D00E94CB0B07FC03D04EF40C94B00BD7
:1017500050954095309521953F4F4F4F5F4F0895DD
:1017600090958095709561957F4F8F4F9F4F08950D
:101770000E94ED0BA59F900DB49F900DA49F800D2E
:10178000911D11240895B7FF0C94B80B0E94B80B5B
:10179000821B930B0895A1E21A2EAA1BBB1BFD010D
:1017A0000DC0AA1FBB1FEE1FFF1FA217B307E40740
:1017B000F50720F0A21BB30BE40BF50B661F771F98
:1017C000881F991F1A9469F7609570958095909578
:1017D0009B01AC01BD01CF010895A29FB001B39F51
:1017E000C001A39F700D811D1124911DB29F700D2A
:1017F000811D1124911D08950F931F93CF93DF93A3
:101800008230910510F482E090E0E0918B03F0913A
:101810008C0320E030E0A0E0B0E0309719F1408187
:1018200051810281138148175907C8F08417950721
:1018300069F4109731F012960C93129713961C933B
:1018400027C000938B0310938C0322C02115310510
:1018500019F04217530718F49A01BD01EF01DF0197
:10186000F801DBCF21153105F9F0281B390B2430A5
:10187000310580F48A819B816115710521F0FB019E
:101880009383828304C090938C0380938B03FE0127
:10189000329644C0FE01E20FF31F819391932250D0
:1018A0003109398328833AC02091890330918A0312
:1018B000232B41F4209102013091030130938A03DC
:1018C00020938903209100013091010121153105F8
:1018D00041F42DB73EB74091040150910501241BFE
:1018E000350BE0918903F0918A03E217F307A0F426
:1018F0002E1B3F0B2817390778F0AC014E5F5F4F66
:101900002417350748F04E0F5F1F50938A0340930A
:1019100089038193919302C0E0E0F0E0CF01DF9171
:10192000CF911F910F910895CF93DF93009709F402
:1019300081C0FC01329713821282A0918B03B09177
:101940008C03109781F420813181820F931F2091A5
:10195000890330918A032817390751F5F0938A03D8
:10196000E093890367C0ED0120E030E0CE17DF0788
:1019700040F44A815B819E0141155105F1F0EA0175
:10198000F5CFD383C28340815181840F951FC8173F
:10199000D90759F488819981840F951F0296918304
:1019A00080838A819B81938382832115310529F469
:1019B000F0938C03E0938B033DC0E901FB83EA8342
:1019C00049915991C40FD51FEC17FD0761F480812F
:1019D0009181840F951F0296E90199838883828102
:1019E00093819B838A83E0E0F0E012968D919C9135
:1019F0001397009719F0FD01DC01F7CF8D919C91B1
:101A000011979D012E5F3F4F820F931F20918903F5
:101A100030918A032817390769F4309729F4109216
:101A20008C0310928B0302C013821282B0938A033C
:101A3000A0938903DF91CF910895FB01DC01415010
:101A4000504048F001900D920020C9F701C01D924E
:101A500041505040E0F70895E89409C097FB3EF4E8
:101A600090958095709561957F4F8F4F9F4F9923EB
:101A7000A9F0F92F96E9BB279395F6958795779569
:101A80006795B795F111F8CFFAF4BB0F11F460FF29
:101A90001BC06F5F7F4F8F4F9F4F16C0882311F081
:101AA00096E911C0772321F09EE8872F762F05C095
:101AB000662371F096E8862F70E060E02AF09A9530
:101AC000660F771F881FDAF7880F9695879597F925
:101AD00008950E947C0D0C94ED0D0E94DF0D38F0EE
:101AE0000E94E60D20F0952311F00C94D60D0C9475
:101AF000DC0D11240C94210E0E94FE0D70F3959FB5
:101B0000C1F3950F50E0551F629FF001729FBB27F4
:101B1000F00DB11D639FAA27F00DB11DAA1F649F90
:101B20006627B00DA11D661F829F2227B00DA11D43
:101B3000621F739FB00DA11D621F839FA00D611DC9
:101B4000221F749F3327A00D611D231F849F600DEA
:101B5000211D822F762F6A2F11249F5750409AF013
:101B6000F1F088234AF0EE0FFF1FBB1F661F771F9F
:101B7000881F91505040A9F79E3F510580F00C946A
:101B8000D60D0C94210E5F3FE4F3983ED4F3869576
:101B900077956795B795F795E7959F5FC1F7FE2B0A
:101BA000880F911D9695879597F9089597F99F67E6
:101BB00080E870E060E008959FEF80EC08950024D5
:101BC0000A941616170618060906089500240A94A2
:101BD00012161306140605060895092E0394000C28
:101BE00011F4882352F0BB0F40F4BF2B11F460FFB7
:101BF00004C06F5F7F4F8F4F9F4F089557FD9058E0
:101C0000440F551F59F05F3F71F04795880F97FBC0
:101C1000991F61F09F3F79F087950895121613067A
:101C20001406551FF2CF4695F1DF08C016161706A9
:101C30001806991FF1CF86957105610508940895DE
:101C4000E894BB2766277727CB0197F90895991B5E
:101C500079E004C0991F961708F0961B881F7A95A3
:101C6000C9F780950895EE0FFF1F0590F491E02DC0
:061C70000994F894FFCF77
:101C760000008D032000000000005F05A706600538
:101C86008305620600000000FC03960485044904EF
:101C960069043E0400000000620335032D031903A6
:101CA6000A030903424E4F3035350053746172748E
:101CB600696E673A205349474E414C204849474888
:101CC600006C6F7720706F696E743A205349474EE7
:101CD600414C204C4F570073706565642075702029
:101CE6007465737420696E203300737065656420B3
:101CF6007570207465737420696E20320073706588
:101D06006564207570207465737420696E203100D7
:101D16007370656564696E672075702E2E2E006E71
:101D26006F7720736C6F77696E6720646F776E2E9E
:101D36002E2E006D6F746F722070726F6772616DF8
:0C1D460020636F6D706C657465642E0086
:00000001FF
