:100000000C9487000C94AF000C94AF000C94AF00DC
:100010000C94AF000C94AF000C94AF000C94AF00A4
:100020000C94AF000C94AF000C94AF000C94C50777
:100030000C94AF000C94AF000C94AF000C94AF0084
:100040000C94FB080C94AF000C94C1080C94860827
:100050000C94AF000C94AF000C94AF000C94AF0064
:100060000C949E060C94AF005B20204F4B20205D2B
:10007000204148525320696E697469616C697A61E4
:1000800074696F6E20636F6D706C65746573005B6F
:10009000204641494C205D204661696C757265209F
:1000A000696E697469616C697A696E67204148524A
:1000B000530000000000240027002A000000000078
:1000C000250028002B0000000007000201000003AB
:1000D00004060000000000000000000000002300F3
:1000E0002600290004040404040404040202020299
:1000F00002020303030303030102040810204080EB
:10010000010204081020010204081020D209112461
:100110001FBECFEFD4E0DEBFCDBF11E0A0E0B1E065
:10012000E8E8FFE102C005900D92AA34B107D9F7C3
:1001300023E0AAE4B1E001C01D92AB30B207E1F7C1
:1001400010E0C7E8D0E004C02197FE010E94BC0F78
:10015000C638D107C9F70E94DA090C940A0C0C942E
:100160000000E091E502F091E6020190F081E02DBF
:10017000682F85EE92E00994CF92DF92EF92FF9282
:10018000CF93E0E0F1E0C491ECEEF0E0849190E0F8
:10019000880F991F86529F4F40E050E0BA01FC0142
:1001A000A591B4912C912C23C21318C04F5F5F4FBF
:1001B0006F4F7F4F413422E452072FE062077105F1
:1001C00071F745C04F5F5F4F6F4F7F4F413422E45F
:1001D00052072FE06207710509F439C0FC01A591AF
:1001E000B4912C912C23C213EDCF30E4C32E32E412
:1001F000D32E3FE0E32EF12CC41AD50AE60AF70A03
:1002000020E030E0A901FC01A591B4916C916C2330
:10021000C6130AC0C216D306E406F506C1F02F5F66
:100220003F4F4F4F5F4FEFCFA5E1B0E00E940D0C65
:10023000DC01CB014096A11DB11DBC01CD0124E024
:1002400096958795779567952A95D1F703C060E0D5
:1002500070E0CB01CF91FF90EF90DF90CF900895A9
:1002600082E290E00197F1F708950F931F93CF93E7
:10027000DF93C0E0D0E0FC0164918C010F5F1F4F61
:10028000662371F0E091E502F091E6020190F081C1
:10029000E02D85EE92E00995C80FD91FC801EBCF7C
:1002A0008DE00E94B1008C018AE00E94B100C00F75
:1002B000D11F8C0F9D1FDF91CF911F910F9108953A
:1002C000613208F045C09091C4029111FCCF22E048
:1002D0002093C40221E02093C3022FEF2093C20297
:1002E0001092C1026093C002E5ECF2E0A0EAB2E035
:1002F00020E0621721F031913D932F5FFACF1092E9
:100300009F0220919F02880F822B80939F028091F1
:100310009E02813041F410929E0280919F02809350
:10032000BB0085EC01C085EE8093BC008091C402C7
:100330008230E1F38091C2028F3F79F08091C20256
:10034000803241F08091C202803331F094E005C0E8
:1003500091E003C092E001C093E0892F08956132DB
:10036000F0F59091C4029111FCCF91E09093C402FA
:100370009093C3022FEF2093C2021092C102260F66
:100380002093C00290939F0290919F02880F892B27
:1003900080939F0280919E02813041F410929E02D0
:1003A00080919F028093BB0085EC01C085EE809315
:1003B000BC008091C4028130E1F38091C1028617B4
:1003C00010F46091C102E0EAF2E0AEE6B2E080E053
:1003D000861721F091919D938F5FFACF089580E069
:1003E000089585ED8093BC008091BC0084FDFCCF16
:1003F0001092C4020895613298F42091C40224300E
:1004000089F460934902282FA9E2B2E0FC018E2F03
:10041000821B861718F481918D93F9CF80E008959F
:1004200081E0089582E008950895E0916D02809141
:100430006C02E81730F4F0E0E259FD4F808190E063
:1004400008958FEF9FEF089590916D0280916C0257
:10045000981750F4E92FF0E0E259FD4F208130E089
:100460009F5F90936D0202C02FEF3FEFC901089587
:1004700080916C0290E020916D02821B9109089599
:10048000CF92DF92EF92FF920F931F93CF93DF9360
:100490007C01CB018A0120919102222389F0EB019A
:1004A0006B01C40ED51ECC15DD0569F06991D7012D
:1004B000ED91FC910190F081E02DC7010995F3CFFA
:1004C000642F0E94FB01C801DF91CF911F910F9112
:1004D000FF90EF90DF90CF900895CF93DF931F921E
:1004E000CDB7DEB76983209191022223D1F020910C
:1004F0008E02203240F021E030E0FC013383228381
:1005000080E090E015C080918F02E82FF0E0EB537F
:10051000FD4F998190838F5F80938F0280938E022D
:1005200005C061E0CE0101960E94FB0181E090E0F0
:100530000F90DF91CF91089560918E02809190028B
:100540000E94600110928F0210928E02109291020E
:1005500008951F93CF93DF93162FC2E9D2E09B81BA
:1005600021E0209391029093900210928F021092BA
:100570008E02AC81BD81ED91FC9111970190F081CB
:10058000E02D682FCD0109958C819D81DC01ED91D5
:10059000FC910190F081E02D612F09958C819D8166
:1005A0000E949C0281E0DF91CF911F910895CF932B
:1005B000DF93C2E9D2E08B8191E090939102809326
:1005C000900210928F0210928E028C819D81DC012C
:1005D000ED91FC910190F081E02D60E009958C8116
:1005E0009D810E949C0261E08B810E94AF0110926C
:1005F0006D0280936C028C819D81DC01ED91FC91F8
:100600000680F781E02D0995DF91CF9108950F9332
:100610001F93CF93DF93FC01A685B7858D01005C06
:100620001F4FE8018881998101968F739927AD0149
:100630004E5B5F4FEA012881398128173907D1F3D2
:10064000E80128813981A20FB31F6C93A685B78575
:10065000A05CBF4F11969C938E93A689B7892C916D
:1006600081E090E0078C02C0880F991F0A94E2F79E
:10067000822B8C9381E081A30488F589E02D808111
:100680008064808381E090E0DF91CF911F910F9192
:100690000895FC0181A1882329F0A489B5898C9152
:1006A00086FFFBCF11A20895FC01A485B585FD014D
:1006B000E05CFF4F20813181329680819181281743
:1006C000390779F080819181A80FB91F8C91208121
:1006D00031812F5F3F4F2F7333273183208390E089
:1006E00008958FEF9FEF0895DC011C96ED91FC912A
:1006F0001D97DF01A05CBF4F2D913C911197129681
:100700008D919C9111972817390739F08D919C9103
:10071000E80FF91F808190E008958FEF9FEF089513
:10072000FC0124853585F901E05CFF4F80819181D2
:10073000329620813181821B930B8F739927089504
:100740000895CF92DF92EF92FF920F931F93CF9372
:10075000DF936C01EB017B01E40EF51E00E010E07D
:10076000CE15DF0561F06991D601ED91FC91019004
:10077000F081E02DC6010995080F191FF1CFC801BE
:10078000DF91CF911F910F91FF90EF90DF90CF906D
:10079000089590E0FC01EA53FF4F2491FC01E850DA
:1007A000FF4F3491FC01EC51FF4FE491EE2309F42B
:1007B0003CC0222339F1233091F038F42130A9F0E4
:1007C000223001F584B58F7D12C0263091F027309C
:1007D000A1F02430B9F4809180008F7D03C0809116
:1007E00080008F77809380000DC084B58F7784BDA3
:1007F00009C08091B0008F7703C08091B0008F7DD9
:100800008093B000F0E0EE0FFF1FE454FF4FA5917E
:10081000B4919FB7F894611104C08C91309538233E
:1008200002C0EC913E2B3C939FBF08951092C402EE
:1008300081E08093C30210929E0261E082E10E94F7
:10084000C90361E083E10E94C903E9EBF0E0808124
:100850008E7F808380818D7F808388E48093B80041
:1008600085E48093BC000895CF93DF9390E0FC0172
:10087000E850FF4F2491FC01EC51FF4F84918823F5
:1008800061F190E0880F991FFC01EE54FF4FC59174
:10089000D491FC01E454FF4FA591B491611109C0BA
:1008A0009FB7F8948881209582238883EC912E232A
:1008B0000BC0623061F49FB7F8948881322F309575
:1008C00083238883EC912E2B2C939FBF06C08FB778
:1008D000F894E8812E2B28838FBFDF91CF91089564
:1008E000789484B5826084BD84B5816084BD85B50B
:1008F000826085BD85B5816085BDEEE6F0E08081D2
:1009000081608083E1E8F0E01082808182608083F2
:10091000808181608083E0E8F0E080818160808375
:10092000E1EBF0E0808184608083E0EBF0E08081A7
:1009300081608083EAE7F0E0808184608083808149
:1009400082608083808181608083808180688083F1
:100950001092C10008953FB7F89480916B01909177
:100960006C01A0916D01B0916E0126B5A89B05C0E8
:100970002F3F19F00196A11DB11D3FBFBA2FA92F1E
:10098000982F8827820F911DA11DB11DBC01CD019B
:1009900042E0660F771F881F991F4A95D1F7089587
:1009A000CF92DF92EF92FF92CF93DF936B017C01A6
:1009B0000E94AB04EB01C114D104E104F10479F00D
:1009C0000E94AB046C1B7D0B683E7340A0F381E07A
:1009D000C81AD108E108F108C851DC4FECCFDF910B
:1009E000CF91FF90EF90DF90CF900895E2E9F2E091
:1009F00082879387682F8DE390E00E94A9026EE1C1
:100A000070E080E090E00C94D0042FB7F8946091EF
:100A10006701709168018091690190916A012FBF0F
:100A2000089508950895009799F0FC010190002021
:100A3000E9F73197AF01481B590BE091E502F091BE
:100A4000E6020280F381E02DBC0185EE92E009947C
:100A500080E090E008958F929F92AF92BF92EF92C4
:100A6000FF920F931F93CF93DF93CDB7DEB7A1977C
:100A70000FB6F894DEBF0FBECDBF162F042F19A2FC
:100A8000423008F40AE07E0121E2E20EF11C802EE1
:100A9000912CA12CB12C612FA50194010E94180C5E
:100AA000029F1019112481E0E81AF1081A3014F499
:100AB000105D01C0195CF7011083122F732FCA015A
:100AC000232B242B252B39F7C7010E941305A19650
:100AD0000FB6F894DEBF0FBECDBFDF91CF911F914F
:100AE0000F91FF90EF90BF90AF909F908F900895DF
:100AF0008F929F92AF92BF92CF92DF92EF92FF922E
:100B00000F931F93CF93DF93CDB7DEB762970FB6E6
:100B1000F894DEBF0FBECDBF6C018B0184E2DB0118
:100B20001D928A95E9F784E290E0A0E0B0E0FB0135
:100B300080839183A283B383F60186819781A08508
:100B4000B185FB0184839583A683B78383E090E01E
:100B5000A0E0B0E080879187A287B3870E94050557
:100B6000D80150966D937D938D939C935397FE017E
:100B700031968CE0DF011D928A95E9F77E01BDE098
:100B8000EB0EF11C86E0F70111928A95E9F7D60188
:100B900013968C91139791E0909391028093900219
:100BA00010928F0210928E0214968D919C9115973F
:100BB000DC01ED91FC910190F081E02D6AE1099555
:100BC000F601848195810E949C0266E0D60113960D
:100BD0008C910E94AF0110926D0280936C025E01B5
:100BE000B3E1AB0EB11CF60184819581DC01ED917E
:100BF000FC910680F781E02D0995F70181937F0133
:100C0000EA15FB0581F76D857E85072E000C880BA4
:100C1000990B0E94950E20E030E040E85DE30E94D1
:100C20004A0F4B015C016F857889072E000C880BF9
:100C3000990B0E94950E20E030E040E85DE30E94B1
:100C40004A0F6B017C0169897A89072E000C880B99
:100C5000990B0E94950E20E030E040E85DE30E9491
:100C60004A0FD80154968D929D92AD92BC9257979F
:100C7000F801C08ED18EE28EF38E5C966D937D93DB
:100C80008D939C935F9781E062960FB6F894DEBFD8
:100C90000FBECDBFDF91CF911F910F91FF90EF90CD
:100CA000DF90CF90BF90AF909F908F9008950F935B
:100CB0001F93CF93DF938C01EB0188E2FB0111922C
:100CC0008A95E9F74BE050E064E371E0CE010E94C1
:100CD0006A0D1B8681E090E0A0E0B0E08C879D87E4
:100CE000AE87BF87F80186819781A085B185888B03
:100CF000998BAA8BBB8B83E090E0A0E0B0E08C8B5B
:100D00009D8BAE8BBF8B1CA21DA21EA21FA2188E94
:100D1000198E1A8E1B8E1C8E1D8E1E8E1F8E8AE0C3
:100D200097EDA3E2BCE388A399A3AAA3BBA3DF9199
:100D3000CF911F910F9108950C94E10C1F920F9287
:100D40000FB60F9211242F933F934F935F936F939E
:100D50007F938F939F93AF93BF93EF93FF93809174
:100D6000B900887F803609F49CC068F5883209F4A0
:100D70005BC090F4803109F454C038F4882309F43E
:100D8000EFC0883009F44DC0EFC0883109F44CC081
:100D9000803209F45DC0E8C0803409F468C048F4CA
:100DA000803309F455C0883309F0DEC08093C20255
:100DB000D1C0803509F44FC0883509F45DC088344E
:100DC00009F0D2C0CFC0883909F4C0C0A8F4883770
:100DD00009F467C038F4883609F463C0803709F431
:100DE00060C0C2C0883809F4B1C0803909F45FC05E
:100DF000803809F0B9C05BC0803B09F481C038F489
:100E0000803A09F466C0883A09F47AC0ADC0803CE3
:100E100009F4A0C0883C09F49DC0883B09F483C054
:100E2000A3C080919F0210C09091C1028091C00226
:100E3000981770F5E091C10281E08E0F8093C10296
:100E4000F0E0E056FD4F80818093BB0085EC7FC0D1
:100E50008093C20287C0E091C10281E08E0F80932F
:100E6000C1028091BB00F0E0E056FD4F808390917D
:100E7000C1028091C00267C0E091C10281E08E0F83
:100E80008093C1028091BB00F0E0E056FD4F80836B
:100E90008091C302811166C081E080939E0284EA42
:100EA0005AC083E08093C40210926B02CFCF80912E
:100EB0006B02803208F04AC0E0916B0281E08E0F35
:100EC00080936B028091BB00F0E0E55BFD4F808377
:100ED000BDCF80916B02803230F4E0916B02F0E084
:100EE000E55BFD4F10820E94F10160916B0270E0A2
:100EF0008BE492E0E0E0F0E0099510926B022AC0EA
:100F000084E08093C40210924A0210924902E0E009
:100F1000F0E0099580914902811105C081E080933C
:100F2000490210922902E0914A0281E08E0F8093DB
:100F30004A02F0E0E75DFD4F80818093BB00909115
:100F40004A0280914902981708F480CF85E880937F
:100F5000BC000AC085EC8093BC001092C40204C09F
:100F60001092C2020E94F101FF91EF91BF91AF91E7
:100F70009F918F917F916F915F914F913F912F91B1
:100F80000F900FBE0F901F9018951F920F920FB6E3
:100F90000F9211242F933F934F935F936F937F93FF
:100FA0008F939F93AF93BF93EF93FF93809103022F
:100FB00087FF05C010928500109284001BC020910D
:100FC0000302022E000C330B8091280290E02817B8
:100FD000390784F480910302082E000C990BFC0160
:100FE000EE0FFF1F8E0F9F1FFC01EC5FFD4F8081F6
:100FF00086FD15C0809103028F5F809303022091CC
:101000000302022E000C330B8091280290E0281777
:101010003907C4F4809103028C3064F113C08091CD
:101020000302082E000C990BFC01EE0FFF1F8E0F20
:101030009F1FFC01EC5FFD4F808160E08F730E9479
:10104000C903D8CF809184009091850004968034A4
:101050009C4918F480E49CE905C08091840090913B
:101060008500049690938900809388008FEF809389
:1010700003023BC0209184003091850080910302DF
:10108000082E000C990BFC01EE0FFF1F8E0F9F1F07
:10109000FC01EC5FFD4F81819281820F931F909341
:1010A00089008093880080910302082E000C990B20
:1010B000FC01EE0FFF1F8E0F9F1FFC01EC5FFD4F29
:1010C000808186FF12C080910302082E000C990BCC
:1010D000FC01EE0FFF1F8E0F9F1FFC01EC5FFD4F09
:1010E000808161E08F730E94C903FF91EF91BF91EE
:1010F000AF919F918F917F916F915F914F913F91B0
:101100002F910F900FBE0F901F9018951F920F9266
:101110000FB60F9211242F933F938F939F93EF93CA
:10112000FF932091AF013091B0018091B101909176
:10113000B2012817390731F48091C1008F7D809367
:10114000C10014C0E091B101F091B201E159FE4F2C
:1011500020818091B1019091B20101968F739927FE
:101160009093B2018093B1012093C600FF91EF915B
:101170009F918F913F912F910F900FBE0F901F90D5
:1011800018951F920F920FB60F9211242F934F9321
:101190005F938F939F93EF93FF938091C00082FDA5
:1011A0001CC02091C6008091F3019091F401409100
:1011B000F5015091F60101968F7399274817590749
:1011C00071F0E091F301F091F401ED54FE4F2083B2
:1011D0009093F4018093F30102C08091C600FF91C7
:1011E000EF919F918F915F914F912F910F900FBE33
:1011F0000F901F9018951F920F920FB60F92112407
:101200002F933F938F939F93AF93BF9380916701E9
:1012100090916801A0916901B0916A0130916601D5
:1012200023E0230F2D3720F40196A11DB11D05C029
:1012300026E8230F0296A11DB11D2093660180931D
:10124000670190936801A0936901B0936A0180914E
:101250006B0190916C01A0916D01B0916E010196AE
:10126000A11DB11D80936B0190936C01A0936D0142
:10127000B0936E01BF91AF919F918F913F912F914C
:101280000F900FBE0F901F901895FC0190912802AF
:101290009C30A0F481E0890F809328029083892FED
:1012A00090E0FC01EE0FFF1F8E0F9F1FFC01EC5F13
:1012B000FD4F88EB9BE09283818308958FEF8083BD
:1012C0000895E7EFF1E01382128288EE93E0A0E048
:1012D000B0E084839583A683B78388E291E091830D
:1012E00080830895E5EEF2E01382128288EE93E0A7
:1012F000A0E0B0E084839583A683B78388E191E082
:101300009183808383EB91E0958784878FE691E0DA
:101310009787868785EC90E0918B808B84EC90E0BA
:10132000938B828B80EC90E0958B848B81EC90E0AA
:10133000978B868B82EC90E0918F808F86EC90E08B
:10134000938F828F84E0848F83E0858F87E0868F00
:1013500085E0878F81E080A30895E2E9F2E08AE0EA
:1013600091E09183808387E390E0A0E0B0E0868302
:101370009783A087B18788E2838387EF91E0958385
:101380008483089583E591E00E94450980E591E01A
:101390000E9445098DE491E00E9445098AE491E0AC
:1013A0000C9445090E9461090E9472090E94AD09CE
:1013B0000C94C2090E947004E091F902F091FA02C3
:1013C00081E090E09C010090050302C0220F331FD2
:1013D0000A94E2F72083E091F502F091F602108280
:1013E000E091F702F091F8022FEC208310920603AF
:1013F000E091FB02F091FC0240819C01009001030E
:1014000002C0220F331F0A94E2F7242B2083E091BD
:10141000FB02F091FC0240819C010090020302C09B
:10142000220F331F0A94E2F7242B2083E091FB0262
:10143000F091FC0240819C010090030302C0220F46
:10144000331F0A94E2F7242B2083E091FB02F091F2
:10145000FC0220810090040302C0880F991F0A94A7
:10146000E2F780958223808368EE73E080E090E06D
:101470000E94D00410926D0210926C0210928F02A2
:1014800010928E020E9416040E94D702803A71F4D4
:1014900080E090E00E94F60460E28FE390E00E941A
:1014A000A9026EE170E080E090E00FC068EE73E0AA
:1014B00080E090E00E94D0040E94D702803A41F37D
:1014C0008FE890E00E9435015DC00E94D0040E9428
:1014D000D702803A29F06AE070E080E090E0F5CF32
:1014E00062E370E080E090E00E94D00460E08EE370
:1014F00090E00E94A9026AE070E080E090E00E9423
:10150000D00460E087E090E00E94A90260E08FE3F1
:1015100090E00E94A9026AE070E080E090E00E9402
:10152000D0048CE090E00E94F60464E170E080E07A
:1015300090E00E94D004E0909C02F0909D0280E038
:1015400090E00E94F60469E170E080E090E00E9483
:10155000D00460E087E090E00E94A90260E88FE399
:1015600090E00E94A9026AE070E080E090E00E94B2
:10157000D004C7010E94F60464E170E080E090E0CE
:101580000E94D00488E690E00E94350161E087E087
:101590000E94340460E088E00E943404809062017C
:1015A00090906301A0906401B090650180925E010B
:1015B00090925F01A0926001B092610140905A0147
:1015C00050905B0160905C0170905D01409256010B
:1015D00050925701609258017092590161E087E082
:1015E0000E94C9030E94300160E087E00E94C903A5
:1015F0000E9405056B017C0160935A0170935B01A9
:1016000080935C0190935D010E94BC000E94930E48
:1016100026E933E44BE05DE30E944A0F20E030E02E
:1016200040E05FE30E944A0F6093620170936301A0
:101630008093640190936501A50194010E94790D46
:101640004B015C01C701B601641975098609970948
:101650000E94950E9B01AC01C501B4010E94EB0DE7
:1016600020E030E048EC52E40E944A0F6B017C011C
:1016700020E030E0A9010E94450F18165CF420E03C
:1016800030E040E85FE3C701B6010E94450F18163D
:101690005CF0BCC020E030E040E85FEBC701B60181
:1016A0000E94E60D87FFB2C0A7019601C701B601EF
:1016B0000E94B70F882319F08BE391E01AC046010E
:1016C0005701E894B7F82FEF3FEF4FE75FE7C50109
:1016D000B4010E94B70F81110FC02FEF3FEF4FE70A
:1016E0005FE7C501B4010E94E60D18162CF48FE3E4
:1016F00091E00E9413057DC02FEF3FEF4FE75FE4BD
:10170000C701B6010E94450F18161CF483E491E04E
:10171000F0CF2FEF3FEF4FE75FECC701B6010E941C
:10172000E60D87FDF3CF20E030E0A901C701B60147
:101730000E94E60D87FF07C08DE20E94B100F7FA14
:10174000F094F7F8F0942AE037ED43EA5BE3C70141
:10175000B6010E947A0D6B017C010E94640E4B0160
:101760005C010E94930E9B01AC01C701B6010E946F
:10177000790D6B017C014AE0C501B4010E942B0583
:1017800087E491E00E941305C3E0C15091F120E08D
:1017900030E040E251E4C701B6010E944A0F4B011C
:1017A0005C010E945D0E6B01770FEE08FF08F7FEEB
:1017B0000EC08DE20E94B10088279927DC018C19A8
:1017C0009D09AE09BF094AE0BC01CD0103C04AE052
:1017D000C701B6010E942B05C701B6010E94950EF4
:1017E0009B01AC01C501B4010E94790D6B017C0124
:1017F000CCCF8DE00E94B1008AE00E94B10062E38C
:1018000070E080E090E00E94D004C8CEC12CD12CC2
:10181000760199CFF8940C94C20F0E943A0CA59FC0
:10182000900DB49F900DA49F800D911D11240895DB
:10183000A1E21A2EAA1BBB1BFD010DC0AA1FBB1FD4
:10184000EE1FFF1FA217B307E407F50720F0A21B46
:10185000B30BE40BF50B661F771F881F991F1A94B3
:1018600069F760957095809590959B01AC01BD01DD
:10187000CF010895A29FB001B39FC001A39F700D37
:10188000811D1124911DB29F700D811D1124911D88
:1018900008950F931F93CF93DF938230910510F437
:1018A00082E090E0E0910903F0910A0320E030E04B
:1018B000A0E0B0E0309719F140815181028113819D
:1018C00048175907C8F08417950769F4109731F045
:1018D00012960C93129713961C9327C0009309033A
:1018E00010930A0322C02115310519F0421753073E
:1018F00018F49A01BD01EF01DF01F801DBCF2115DA
:101900003105F9F0281B390B2430310580F48A8128
:101910009B816115710521F0FB019383828304C0D3
:1019200090930A0380930903FE01329644C0FE019E
:10193000E20FF31F81939193225031093983288359
:101940003AC02091070330910803232B41F42091E2
:101950000201309103013093080320930703209183
:101960000001309101012115310541F42DB73EB739
:101970004091040150910501241B350BE0910703B0
:10198000F0910803E217F307A0F42E1B3F0B281772
:10199000390778F0AC014E5F5F4F2417350748F0E8
:1019A0004E0F5F1F50930803409307038193919359
:1019B00002C0E0E0F0E0CF01DF91CF911F910F91E5
:1019C0000895CF93DF93009709F481C0FC0132970B
:1019D00013821282A0910903B0910A03109781F437
:1019E00020813181820F931F2091070330910803DA
:1019F0002817390751F5F0930803E093070367C0F0
:101A0000ED0120E030E0CE17DF0740F44A815B8132
:101A10009E0141155105F1F0EA01F5CFD383C28350
:101A200040815181840F951FC817D90759F48881C7
:101A30009981840F951F0296918380838A819B816F
:101A4000938382832115310529F4F0930A03E093EF
:101A500009033DC0E901FB83EA8349915991C40F11
:101A6000D51FEC17FD0761F480819181840F951FCC
:101A70000296E90199838883828193819B838A837B
:101A8000E0E0F0E012968D919C911397009719F089
:101A9000FD01DC01F7CF8D919C9111979D012E5F87
:101AA0003F4F820F931F209107033091080328179F
:101AB000390769F4309729F410920A031092090348
:101AC00002C013821282B0930803A0930703DF9130
:101AD000CF910895FB01DC014150504048F0019046
:101AE0000D920020C9F701C01D9241505040E0F70F
:101AF00008955058BB27AA270E94910D0C940B0FF4
:101B00000E94FD0E38F00E94040F20F039F49F3F30
:101B100019F426F40C94FA0E0EF4E095E7FB0C94FD
:101B2000F40EE92F0E941C0F58F3BA1762077307CF
:101B30008407950720F079F4A6F50C943E0F0EF477
:101B4000E0950B2EBA2FA02D0B01B90190010C01CD
:101B5000CA01A0011124FF27591B99F0593F50F4E5
:101B6000503E68F11A16F040A22F232F342F44273D
:101B7000585FF3CF469537952795A795F040539535
:101B8000C9F77EF41F16BA0B620B730B840BBAF005
:101B90009150A1F0FF0FBB1F661F771F881FC2F770
:101BA0000EC0BA0F621F731F841F48F48795779584
:101BB0006795B795F7959E3F08F0B0CF9395880F3E
:101BC00008F09927EE0F9795879508950E94D00EFB
:101BD00008F481E008950E94FF0D0C940B0F0E9401
:101BE000040F58F00E94FD0E40F029F45F3F29F0E9
:101BF0000C94F40E51110C943F0F0C94FA0E0E94A9
:101C00001C0F68F39923B1F3552391F3951B550BE2
:101C1000BB27AA2762177307840738F09F5F5F4FBF
:101C2000220F331F441FAA1FA9F335D00E2E3AF0FE
:101C3000E0E832D091505040E695001CCAF72BD016
:101C4000FE2F29D0660F771F881FBB1F2617370767
:101C50004807AB07B0E809F0BB0B802DBF01FF2799
:101C600093585F4F3AF09E3F510578F00C94F40E74
:101C70000C943F0F5F3FE4F3983ED4F3869577953D
:101C80006795B795F7959F5FC9F7880F911D969552
:101C9000879597F90895E1E0660F771F881FBB1FAE
:101CA000621773078407BA0720F0621B730B840B5B
:101CB000BA0BEE1F88F7E09508950E94640E6894B1
:101CC000B1110C943F0F08950E94240F88F09F5784
:101CD00098F0B92F9927B751B0F0E1F0660F771F50
:101CE000881F991F1AF0BA95C9F714C0B13091F046
:101CF0000E943E0FB1E008950C943E0F672F782F9D
:101D00008827B85F39F0B93FCCF38695779567950A
:101D1000B395D9F73EF490958095709561957F4F76
:101D20008F4F9F4F0895E89409C097FB3EF490951C
:101D30008095709561957F4F8F4F9F4F9923A9F0A4
:101D4000F92F96E9BB279395F69587957795679533
:101D5000B795F111F8CFFAF4BB0F11F460FF1BC077
:101D60006F5F7F4F8F4F9F4F16C0882311F096E90A
:101D700011C0772321F09EE8872F762F05C06623B8
:101D800071F096E8862F70E060E02AF09A95660F71
:101D9000771F881FDAF7880F9695879597F908952A
:101DA000990F0008550FAA0BE0E8FEEF161617066C
:101DB000E807F907C0F012161306E407F50798F0D4
:101DC000621B730B840B950B39F40A2661F0232BED
:101DD000242B252B21F408950A2609F4A140A69569
:101DE0008FEF811D811D089597F99F6780E870E04E
:101DF00060E008959FEF80EC089500240A94161681
:101E0000170618060906089500240A9412161306E8
:101E1000140605060895092E0394000C11F4882376
:101E200052F0BB0F40F4BF2B11F460FF04C06F5F92
:101E30007F4F8F4F9F4F089557FD9058440F551F68
:101E400059F05F3F71F04795880F97FB991F61F03C
:101E50009F3F79F087950895121613061406551FB3
:101E6000F2CF4695F1DF08C0161617061806991F1F
:101E7000F1CF86957105610508940895E894BB2714
:101E800066277727CB0197F908950E94D00E08F4B2
:101E90008FEF08950E945D0F0C940B0F0E94FD0EB2
:101EA00038F00E94040F20F0952311F00C94F40EEA
:101EB0000C94FA0E11240C943F0F0E941C0F70F327
:101EC000959FC1F3950F50E0551F629FF001729FDF
:101ED000BB27F00DB11D639FAA27F00DB11DAA1FEE
:101EE000649F6627B00DA11D661F829F2227B00D3B
:101EF000A11D621F739FB00DA11D621F839FA00DC6
:101F0000611D221F749F3327A00D611D231F849F15
:101F1000600D211D822F762F6A2F11249F5750406C
:101F20009AF0F1F088234AF0EE0FFF1FBB1F661FE7
:101F3000771F881F91505040A9F79E3F510580F0B0
:101F40000C94F40E0C943F0F5F3FE4F3983ED4F3EF
:101F5000869577956795B795F795E7959F5FC1F754
:101F6000FE2B880F911D9695879597F908950E94ED
:101F7000D00E880B990B0895EE0FFF1F0590F4917A
:081F8000E02D0994F894FFCF55
:101F880000000B0320000000000011059C0612054C
:101F980078055706000000000703A10390035403C7
:101FA80074034903000000006D0240023802240255
:101FB80015021402424E4F303535006E616E0069CD
:0A1FC8006E66006F7666002E0000C2
:00000001FF
