:100000000C949E000C94C6000C94C6000C94C60080
:100010000C94C6000C94C6000C94C6000C94C60048
:100020000C94C6000C94C6000C94C6000C94D0042A
:100030000C94C6000C94C6000C94C6000C94C60028
:100040000C94B7050C94C6000C9449040C940E044F
:100050000C94C6000C94C6000C94C6000C94C60008
:100060000C94B1080C94C6005B20204F4B20205DFF
:10007000204D6F746F7220436F6E74726F6C2055D9
:100080006E697420696E697469616C697A65642C43
:10009000206D6F746F72732061726D65642E005BEA
:1000A00020204F4B20205D204148525320696E692B
:1000B0007469616C697A6174696F6E20636F6D70C9
:1000C0006C65746573005B204641494C205D204699
:1000D00061696C75726520696E697469616C697AB1
:1000E000696E67204148525300000000070002017A
:1000F00000000304060000000000000000000000F3
:1001000000250028002B0000000000240027002A02
:1001100000040404040404040402020202020203B0
:1001200003030303030102040810204080010204BA
:1001300008102001020408102000280D11241FBE01
:10014000CFEFD4E0DEBFCDBF11E0A0E0B1E0EAE345
:10015000F2E202C005900D92A835B107D9F723E06D
:10016000A8E5B1E001C01D92AD30B207E1F710E0A3
:10017000CEE9D0E004C02197FE010E941511CD39CF
:10018000D107C9F70E940F0B0C94300D0C9400009E
:100190000895E0912C0280912B02E81730F4F0E0F2
:1001A000E35AFD4F808190E008958FEF9FEF08950F
:1001B00090912C0280912B02981750F4E92FF0E0D7
:1001C000E35AFD4F208130E09F5F90932C0202C0E4
:1001D0002FEF3FEFC901089580912B0290E020910D
:1001E0002C02821B910908950F931F93CF93DF93E5
:1001F000FC01A685B7858D01005C1F4FE801888151
:10020000998101968F739927AD014E5B5F4FEA018B
:100210002881398128173907D1F3E80128813981EC
:10022000A20FB31F6C93A685B785A05CBF4F119634
:100230009C938E93A689B7892C9181E090E0078CDE
:1002400002C0880F991F0A94E2F7822B8C9381E0F9
:1002500081A30488F589E02D80818064808381E01A
:1002600090E0DF91CF911F910F910895FC0181A142
:10027000882329F0A489B5898C9186FFFBCF11A230
:100280000895FC01A485B585FD01E05CFF4F208148
:1002900031813296808191812817390779F08081E8
:1002A0009181A80FB91F8C91208131812F5F3F4F21
:1002B0002F7333273183208390E008958FEF9FEFD2
:1002C0000895DC011C96ED91FC911D97DF01A05C67
:1002D000BF4F2D913C91119712968D919C91119742
:1002E0002817390739F08D919C91E80FF91F80810B
:1002F00090E008958FEF9FEF0895FC0124853585E8
:10030000F901E05CFF4F808191813296208131813B
:10031000821B930B8F73992708950895CF92DF92D4
:10032000EF92FF920F931F93CF93DF936C01EB013A
:100330007B01E40EF51E00E010E0CE15DF0561F054
:100340006991D601ED91FC910190F081E02DC601FB
:100350000995080F191FF1CFC801DF91CF911F91A7
:100360000F91FF90EF90DF90CF900895789484B52F
:10037000826084BD84B5816084BD85B5826085BDA1
:1003800085B5816085BDEEE6F0E080818160808387
:10039000E1E8F0E01082808182608083808181606A
:1003A0008083E0E8F0E0808181608083E1EBF0E031
:1003B000808184608083E0EBF0E0808181608083D5
:1003C000EAE7F0E0808184608083808182608083BE
:1003D0008081816080838081806880831092C100E9
:1003E00008953FB7F89480916D0190916E01A091AE
:1003F0006F01B091700126B5A89B05C02F3F19F081
:100400000196A11DB11D3FBFBA2FA92F982F882794
:10041000820F911DA11DB11DBC01CD0142E0660FEF
:10042000771F881F991F4A95D1F708952FB7F89421
:100430006091690170916A0180916B0190916C01EA
:100440002FBF0895089508951F93CF93DF93EC0174
:10045000162F88818C3008F04DC0862F0E940B0625
:100460008881E82FF0E09F01220F331FE20FF31F76
:10047000E95FFD4F1F739081907C192B10831982C7
:100480001A826CE00E9409119CE0899FB00111243E
:1004900040E050E09B01240F351FF901EE0FFF1FD4
:1004A0002E0F3F1FF901E95FFD4F908196FD16C0A9
:1004B0004F5F5F4F4C30510569F781110FC01092AB
:1004C000800082E080938100109285001092840069
:1004D000B19A80916F00826080936F00E881F0E0B4
:1004E000CF01880F991FE80FF91FE95FFD4F808149
:1004F000806480838881DF91CF911F9108950F934D
:100500001F93CF93DF938C01EB0188E2FB011192E3
:100510008A95E9F74BE050E064E371E0CE010E9478
:10052000B70E1B8681E090E0A0E0B0E08C879D874D
:10053000AE87BF87F80186819781A085B185888BBA
:10054000998BAA8BBB8B83E090E0A0E0B0E08C8B12
:100550009D8BAE8BBF8B1CA21DA21EA21FA2188E4C
:10056000198E1A8E1B8E1C8E1D8E1E8E1F8E8AE07B
:1005700097EDA3E2BCE388A399A3AAA3BBA3DF9151
:10058000CF911F910F910895CF92DF92EF92FF923A
:100590000F931F93CF93DF937C01CB018A012091AE
:1005A0003002222389F0EB016B01C40ED51ECC155D
:1005B000DD0569F06991D701ED91FC910190F08121
:1005C000E02DC7010995F3CF642F0E94D809C80117
:1005D000DF91CF911F910F91FF90EF90DF90CF901F
:1005E0000895CF93DF931F92CDB7DEB76983209133
:1005F00030022223D1F020912D02203240F021E060
:1006000030E0FC013383228380E090E015C08091CC
:100610002E02E82FF0E0E35CFD4F998190838F5F1D
:1006200080932E0280932D0205C061E0CE010196D9
:100630000E94D80981E090E00F90DF91CF9108955A
:100640000C942E0E60912D0280912F020E94CA07F9
:1006500010922E0210922D021092300208958F9265
:100660009F92AF92BF92CF92DF92EF92FF920F9341
:100670001F93CF93DF93CDB7DEB762970FB6F89491
:10068000DEBF0FBECDBF6C018B0184E2DB011D928A
:100690008A95E9F784E290E0A0E0B0E0FB01808376
:1006A0009183A283B383F60186819781A085B1856A
:1006B000FB0184839583A683B78383E090E0A0E069
:1006C000B0E080879187A287B3870E941602D80185
:1006D00050966D937D938D939C935397FE01319625
:1006E0008CE0DF011D928A95E9F77E01BDE0EB0EFB
:1006F000F11C86E0F70111928A95E9F7D60113966D
:100700008C91139791E09093300280932F02109276
:100710002E0210922D0214968D919C911597DC015A
:10072000ED91FC910190F081E02D6AE10995F601CF
:10073000848195810E94220366E0D60113968C91F4
:100740000E94880710922C0280932B025E01B3E175
:10075000AB0EB11CF60184819581DC01ED91FC9119
:100760000680F781E02D0995F70181937F01EA1555
:10077000FB0581F76D857E85072E000C880B990B94
:100780000E94E20F20E030E040E85DE30E94971015
:100790004B015C016F857889072E000C880B990B43
:1007A0000E94E20F20E030E040E85DE30E949710F5
:1007B0006B017C0169897A89072E000C880B990BE3
:1007C0000E94E20F20E030E040E85DE30E949710D5
:1007D000D80154968D929D92AD92BC925797F80194
:1007E000C08ED18EE28EF38E5C966D937D938D9349
:1007F0009C935F9781E062960FB6F894DEBF0FBEC0
:10080000CDBFDF91CF911F910F91FF90EF90DF90BF
:10081000CF90BF90AF909F908F9008951F920F92AE
:100820000FB60F9211242F933F938F939F93EF93C3
:10083000FF932091B1013091B2018091B301909169
:10084000B4012817390731F48091C1008F7D80935E
:10085000C10014C0E091B301F091B401EF58FE4F14
:1008600020818091B3019091B40101968F739927F3
:100870009093B4018093B3012093C600FF91EF9150
:100880009F918F913F912F910F900FBE0F901F90CE
:1008900018951F920F920FB60F9211242F934F931A
:1008A0005F938F939F93EF93FF938091C00082FD9E
:1008B0001CC02091C6008091F5019091F6014091F5
:1008C000F7015091F80101968F739927481759073E
:1008D00071F0E091F501F091F601EB54FE4F2083A9
:1008E0009093F6018093F50102C08091C600FF91BC
:1008F000EF919F918F915F914F912F910F900FBE2C
:100900000F901F90189590E0FC01E751FF4F249144
:10091000FC01EB5DFE4F3491FC01EF5EFE4FE49174
:10092000EE2309F43CC0222339F1233091F038F44E
:100930002130A9F0223001F584B58F7D12C0263018
:1009400091F02730A1F02430B9F4809180008F7DA0
:1009500003C0809180008F77809380000DC084B5A4
:100960008F7784BD09C08091B0008F7703C08091DC
:10097000B0008F7D8093B000F0E0EE0FFF1FE350DA
:10098000FF4FA591B4919FB7F894611104C08C9169
:100990003095382302C0EC913E2B3C939FBF0895C5
:1009A0001F920F920FB60F9211242F933F934F93E4
:1009B0005F936F937F938F939F93AF93BF93EF93C7
:1009C000FF938091050287FF05C010928500109269
:1009D00084001BC020910502022E000C330B809175
:1009E000060290E02817390784F480910502082E4A
:1009F000000C990BFC01EE0FFF1F8E0F9F1FFC01D7
:100A0000E95FFD4F808186FD15C0809105028F5FF3
:100A10008093050220910502022E000C330B809179
:100A2000060290E028173907C4F4809105028C3043
:100A300064F113C080910502082E000C990BFC0193
:100A4000EE0FFF1F8E0F9F1FFC01E95FFD4F80819E
:100A500060E08F730E948304D8CF809184009091CE
:100A60008500049680349C4918F480E49CE905C014
:100A700080918400909185000496909389008093E2
:100A800088008FEF809305023BC020918400309155
:100A9000850080910502082E000C990BFC01EE0FD9
:100AA000FF1F8E0F9F1FFC01E95FFD4F8181928127
:100AB000820F931F90938900809388008091050294
:100AC000082E000C990BFC01EE0FFF1F8E0F9F1FCD
:100AD000FC01E95FFD4F808186FF12C08091050215
:100AE000082E000C990BFC01EE0FFF1F8E0F9F1FAD
:100AF000FC01E95FFD4F808161E08F730E948304F8
:100B0000FF91EF91BF91AF919F918F917F916F91E5
:100B10005F914F913F912F910F900FBE0F901F90BB
:100B20001895CF92DF92EF92FF92CF93DF936B01F4
:100B30007C010E94F101EB01C114D104E104F10434
:100B400079F00E94F1016C1B7D0B683E7340A0F3AD
:100B500081E0C81AD108E108F108C851DC4FECCF98
:100B6000DF91CF91FF90EF90DF90CF9008951F928B
:100B70000F920FB60F9211242F933F938F939F9351
:100B8000AF93BF938091690190916A01A0916B012D
:100B9000B0916C013091680123E0230F2D3720F4D0
:100BA0000196A11DB11D05C026E8230F0296A11DC7
:100BB000B11D209368018093690190936A01A0930D
:100BC0006B01B0936C0180916D0190916E01A091C9
:100BD0006F01B09170010196A11DB11D80936D014F
:100BE00090936E01A0936F01B0937001BF91AF918C
:100BF0009F918F913F912F910F900FBE0F901F905B
:100C0000189585ED8093BC008091BC0084FDFCCFDD
:100C100010920803089590E0FC01EB5DFE4F2491D3
:100C2000FC01EF5EFE4F8491882399F090E0880FDD
:100C3000991FFC01E95FFE4FA591B491FC01E350BF
:100C4000FF4F859194918FB7F894EC91E22BEC9340
:100C50008FBF0895E0917D02F0917E020190F081B6
:100C6000E02D682F8DE792E00994009799F0FC0140
:100C700001900020E9F73197AF01481B590BE09133
:100C80007D02F0917E020280F381E02DBC018DE7B0
:100C900092E0099480E090E008958F929F92AF9245
:100CA000BF92EF92FF920F931F93CF93DF93CDB735
:100CB000DEB7A1970FB6F894DEBF0FBECDBF162FDB
:100CC000042F19A2423008F40AE07E0121E2E20E6C
:100CD000F11C802E912CA12CB12C612FA501940127
:100CE0000E94650D029F1019112481E0E81AF10895
:100CF0001A3014F4105D01C0195CF7011083122F33
:100D0000732FCA01232B242B252B39F7C7010E94EF
:100D10003506A1960FB6F894DEBF0FBECDBFDF91AA
:100D2000CF911F910F91FF90EF90BF90AF909F9048
:100D30008F9008954F925F926F927F928F929F92C1
:100D4000AF92BF92CF92DF92EF92FF92CF93DF9359
:100D50006B017C01B42E9B01AC010E94041188231D
:100D600019F089E491E027C026013701E89477F86B
:100D70002FEF3FEF4FE75FE7C301B2010E9404117D
:100D800081110DC02FEF3FEF4FE75FE7C301B201C5
:100D90000E94330F18161CF48DE491E00CC02FEF65
:100DA0003FEF4FE75FE4C701B6010E9492101816AB
:100DB00094F481E591E0DF91CF91FF90EF90DF9087
:100DC000CF90BF90AF909F908F907F906F905F90EB
:100DD0004F900C9435062FEF3FEF4FE75FECC701C4
:100DE000B6010E94330F87FDE4CF20E030E0A90177
:100DF000C701B6010E94330F87FF09C08DE20E9430
:100E00002A06EC01F7FAF094F7F8F09402C0C0E07B
:100E1000D0E0A12C60E070E080E09FE3BA1441F0E4
:100E200020E030E040E251E40E94380FA394F6CF76
:100E3000A70196010E94C70E6B017C010E94B10FB1
:100E40002B013C014AE00E944D06C80FD91FBB2070
:100E500009F44EC0C301B2010E94E00F9B01AC0136
:100E6000C701B6010E94C60E2B013C0185E591E049
:100E70000E943506C80FD91FFB2C20E030E040E26D
:100E800051E4C301B2010E9497102B013C010E9462
:100E9000AA0F4B01770FAA08BB08B7FE13C08DE25B
:100EA0000E942A066C0188279927DC018819990974
:100EB000AA09BB094AE0BC01CD010E944D068C0D78
:100EC0009D1D05C04AE0C501B4010E944D06C80F32
:100ED000D91FC501B4010E94E20F9B01AC01C301FF
:100EE000B2010E94C60E2B013C01FA94F110C5CF4D
:100EF000CE01DF91CF91FF90EF90DF90CF90BF9028
:100F0000AF909F908F907F906F905F904F900895DB
:100F10006132F0F5909108039111FCCF91E090932C
:100F20000803909307032FEF209306031092050305
:100F3000260F209304039093030390910303880FDB
:100F4000892B8093030380910203813041F4109236
:100F50000203809103038093BB0085EC01C085EE02
:100F60008093BC00809108038130E1F380910503F8
:100F7000861710F460910503E2EEF2E0ADE5B2E011
:100F800080E0861721F091919D938F5FFACF0895AD
:100F900080E00895613208F045C0909108039111F6
:100FA000FCCF22E02093080321E0209307032FEFDA
:100FB000209306031092050360930403EDE3F2E02F
:100FC000A2EEB2E020E0621721F031913D932F5F55
:100FD000FACF1092030320910303880F822B809392
:100FE000030380910203813041F410920203809147
:100FF00003038093BB0085EC01C085EE8093BC00A9
:10100000809108038230E1F3809106038F3F79F0ED
:1010100080910603803241F080910603803331F0E5
:1010200094E005C091E003C092E001C093E0892FF5
:1010300008950F931F93CF93DF93C0E0D0E0FC019E
:1010400064918C010F5F1F4F662371F0E0917D0268
:10105000F0917E020190F081E02D8DE792E00995FC
:10106000C80FD91FC801EBCF8DE00E942A068C0162
:101070008AE00E942A06C00FD11F8C0F9D1FDF91AE
:10108000CF911F910F9108951F93CF93DF93162F48
:10109000C1E3D2E09B8121E02093300290932F02A4
:1010A00010922E0210922D02AC81BD81ED91FC9127
:1010B00011970190F081E02D682FCD0109958C8169
:1010C0009D81DC01ED91FC910190F081E02D612F7B
:1010D00009958C819D810E94220381E0DF91CF914F
:1010E0001F910895E1E3F2E082879387682F8DE3F3
:1010F00090E00E9444086EE170E080E090E00C9483
:101100009105CF93DF93C1E3D2E08B8191E090937F
:10111000300280932F0210922E0210922D028C81A9
:101120009D81DC01ED91FC910190F081E02D60E06A
:1011300009958C819D810E94220361E08B810E9430
:10114000880710922C0280932B028C819D81DC01F8
:10115000ED91FC910680F781E02D0995DF91CF910B
:1011600008951F920F920FB60F9211242F933F9361
:101170004F935F936F937F938F939F93AF93BF939F
:10118000EF93FF938091B900887F803609F49CC06B
:1011900068F5883209F45BC090F4803109F454C0DA
:1011A00038F4882309F4EFC0883009F44DC0EFC04B
:1011B000883109F44CC0803209F45DC0E8C0803445
:1011C00009F468C048F4803309F455C0883309F045
:1011D000DEC080930603D1C0803509F44FC0883546
:1011E00009F45DC0883409F0D2C0CFC0883909F451
:1011F000C0C0A8F4883709F467C038F4883609F409
:1012000063C0803709F460C0C2C0883809F4B1C037
:10121000803909F45FC0803809F0B9C05BC0803BF9
:1012200009F481C038F4803A09F466C0883A09F4B8
:101230007AC0ADC0803C09F4A0C0883C09F49DC0D0
:10124000883B09F483C0A3C08091030310C0909130
:10125000050380910403981770F5E091050381E080
:101260008E0F80930503F0E0EE51FD4F8081809357
:10127000BB0085EC7FC08093060387C0E091050327
:1012800081E08E0F809305038091BB00F0E0EE516A
:10129000FD4F8083909105038091040367C0E09126
:1012A000050381E08E0F809305038091BB00F0E081
:1012B000EE51FD4F808380910703811166C081E06C
:1012C0008093020384EA5AC083E08093080310925B
:1012D000E102CFCF8091E102803208F04AC0E09174
:1012E000E10281E08E0F8093E1028091BB00F0E08B
:1012F000EF53FD4F8083BDCF8091E102803230F407
:10130000E091E102F0E0EF53FD4F10820E940106F0
:101310006091E10270E081EC92E0E0E0F0E009959C
:101320001092E1022AC084E0809308031092C00268
:101330001092BF02E0E0F0E009958091BF028111B8
:1013400005C081E08093BF0210929F02E091C0022D
:1013500081E08E0F8093C002F0E0E156FD4F808166
:101360008093BB009091C0028091BF02981708F44F
:1013700080CF85E88093BC000AC085EC8093BC00D8
:101380001092080304C0109206030E940106FF9108
:10139000EF91BF91AF919F918F917F916F915F91ED
:1013A0004F913F912F910F900FBE0F901F90189566
:1013B000613298F420910803243089F46093BF02CD
:1013C000282FAFE9B2E0FC018E2F821B861718F49C
:1013D00081918D93F9CF80E0089581E0089582E0B6
:1013E00008951092080381E080930703109202038E
:1013F00061E082E10E94830461E083E10E94830452
:10140000E9EBF0E080818E7F808380818D7F808317
:1014100088E48093B80085E48093BC000895CF925F
:10142000DF92EF92FF92CF93DF93EC01603282E084
:1014300078070CF03DC077FD06C0653B71052CF0C8
:1014400064EB70E002C060E070E0898128E830E081
:101450006901C81AD10887FDD394CC0CDD1CCC0CD3
:10146000DD1C0D2C000CEE08FF088A8128E532E017
:10147000281B310987FD3395220F331F220F331F9D
:10148000C901330FAA0BBB0B9C01AD012C193D09FF
:101490004E095F09DB010E945D0D24EB30E040E066
:1014A00050E00E94330DC20ED31EE41EF51EB6019D
:1014B00038813C3080F5298188E890E0821B9109D1
:1014C00027FD9395880F991F880F991F6817790733
:1014D00084F08A8148E552E0481B510987FD539505
:1014E000440F551F440F551FCB01461757070CF4E7
:1014F000CA014FB7F894232F30E0F901EE0FFF1F18
:101500002E0F3F1FF901E95FFD4F0297880F991FCA
:10151000928381834FBFDF91CF91FF90EF90DF9057
:10152000CF900895FC01909106029C30A0F481E0D8
:10153000890F809306029083892F90E0FC01EE0FC3
:10154000FF1F8E0F9F1FFC01E95FFD4F88EB9BE0A3
:101550009283818308958FEF80830895E9EFF1E00E
:101560001382128288EE93E0A0E0B0E0848395833A
:10157000A683B78388E291E0918380830895EDE7A5
:10158000F2E01382128288EE93E0A0E0B0E0848360
:101590009583A683B78388E191E09183808385EB6F
:1015A00091E09587848781E791E09787868785EC2E
:1015B00090E0918B808B84EC90E0938B828B80EC1D
:1015C00090E0958B848B81EC90E0978B868B82ECFE
:1015D00090E0918F808F86EC90E0938F828F84E0F3
:1015E000848F83E0858F87E0868F85E0878F81E019
:1015F00080A30895E1E3F2E08AE091E091838083A3
:1016000087E390E0A0E0B0E086839783A087B1876E
:1016100088E2838389EF91E0958384830895CF9353
:10162000DF93CDB7DEB7AC970FB6F894DEBF0FBE31
:10163000CDBF0E94B601E0919102F091920281E04B
:1016400090E09C0100909D0202C0220F331F0A947B
:10165000E2F72083E0918D02F0918E021082E091FA
:101660008F02F09190022FEC208310929E02E09165
:101670009302F091940240819C010090990202C073
:10168000220F331F0A94E2F7242B2083E091930268
:10169000F091940240819C0100909A0202C0220FB6
:1016A000331F0A94E2F7242B2083E0919302F091F8
:1016B000940240819C0100909B0202C0220F331FC4
:1016C0000A94E2F7242B2083E0919302F091940294
:1016D000208100909C0202C0880F991F0A94E2F7B3
:1016E00080958223808368EE73E080E090E00E9422
:1016F000910510922C0210922B0210922E02109241
:101700002D020E94F1090E948108803A71F480E064
:1017100090E00E94720860E28FE390E00E9444082B
:101720006EE170E080E090E00FC068EE73E080E072
:1017300090E00E9491050E948108803A41F386EC76
:1017400090E00E9419085DC00E9491050E948108E6
:10175000803A29F06AE070E080E090E0F5CF62E343
:1017600070E080E090E00E94910560E08EE390E000
:101770000E9444086AE070E080E090E00E949105D9
:1017800060E087E090E00E94440860E08FE390E032
:101790000E9444086AE070E080E090E00E949105B9
:1017A0008CE090E00E94720864E170E080E090E0DC
:1017B0000E94910500913B0210913C0280E090E074
:1017C0000E94720869E170E080E090E00E9491055B
:1017D00060E087E090E00E94440860E88FE390E0DA
:1017E0000E9444086AE070E080E090E00E94910569
:1017F000C8010E94720864E170E080E090E00E94FD
:1018000091058FE990E00E94190869E070E085E693
:1018100091E00E9424026AE070E082E691E00E947A
:1018200024026BE070E08FE591E00E9424026CE0FE
:1018300070E08CE591E00E94240260E070E085E6B3
:1018400091E00E940F0A60E070E082E691E00E9461
:101850000F0A60E070E08FE591E00E940F0A60E0FF
:1018600070E08CE591E00E940F0A68EB7BE080E07D
:1018700090E00E94910588E690E00E941908C12C32
:10188000D12C760119A61AA61BA61CA6812C912C78
:101890005401BE016F5F7F4F81E392E00E942F03EE
:1018A0000E9416026DA37EA38FA398A78D8D9E8D97
:1018B000AF8DB8A18093580190935901A0935A011C
:1018C000B0935B018BE391E00E9435066091580173
:1018D0007091590180915A0190915B0142E00E9400
:1018E0009A0682E491E00E94350610915801009119
:1018F000590130905A0120905B016DA17EA18FA10A
:1019000098A56C197D098E099F090E94E20F6B0151
:101910007C019B01AC01612F702F832D922D0E94C1
:1019200097109B01AC01C501B4010E94C70E4B0189
:101930005C0128E631E94DEC5EEB612F702F832DC1
:10194000922D0E94971020E030E0A9010E94C70E5E
:101950002B013C0129A53AA54BA55CA5612F702F51
:10196000832D922D0E94C60EA70196010E94380F6A
:101970002DEC3CEC4CEC5DE30E9497106B017C017C
:1019800022E838EA4BEF57EBC501B4010E949710EB
:10199000A30192010E94C70E9B01AC01C701B601D1
:1019A0000E94C70E6B017C0142E00E949A068DE006
:1019B0000E942A068AE00E942A0620E030E048E4DD
:1019C00052E4C701B6010E94C70E0E94AA0F2B0164
:1019D0003C01A701960160E070E088E492E40E9477
:1019E000C60E0E94AA0F6B017C01B20185E691E050
:1019F0000E940F0AB60182E691E00E940F0AB6012A
:101A00008FE591E00E940F0AB2018CE591E00E94FF
:101A10000F0A68EC70E080E090E00E949105CDA094
:101A2000DEA0EFA0F8A419A70AA73BA62CA631CFE9
:101A300085E691E00E94920A82E691E00E94920A75
:101A40008FE591E00E94920A8CE591E00C94920A55
:101A50000E94AE0A0E94BF0A0E94FA0A0C94180D56
:101A6000F8940C941B11052E97FB1EF400940E9411
:101A70004A0D57FD07D00E94650D07FC03D04EF4B8
:101A80000C944A0D50954095309521953F4F4F4FFE
:101A90005F4F089590958095709561957F4F8F4F1A
:101AA0009F4F08950E94870DA59F900DB49F900DA4
:101AB000A49F800D911D11240895B7FF0C94520D21
:101AC0000E94520D821B930B0895A1E21A2EAA1BAD
:101AD000BB1BFD010DC0AA1FBB1FEE1FFF1FA217DE
:101AE000B307E407F50720F0A21BB30BE40BF50BDB
:101AF000661F771F881F991F1A9469F76095709564
:101B0000809590959B01AC01BD01CF010895A29FE6
:101B1000B001B39FC001A39F700D811D1124911DC1
:101B2000B29F700D811D1124911D08950F931F9375
:101B3000CF93DF938230910510F482E090E0E09142
:101B40000B03F0910C0320E030E0A0E0B0E0309710
:101B500019F1408151810281138148175907C8F05A
:101B60008417950769F4109731F012960C93129729
:101B700013961C9327C000930B0310930C0322C0F1
:101B80002115310519F04217530718F49A01BD01C8
:101B9000EF01DF01F801DBCF21153105F9F0281B3A
:101BA000390B2430310580F48A819B8161157105E0
:101BB00021F0FB019383828304C090930C038093F4
:101BC0000B03FE01329644C0FE01E20FF31F819326
:101BD000919322503109398328833AC02091090317
:101BE00030910A03232B41F420910201309103012B
:101BF00030930A03209309032091000130910101E1
:101C00002115310541F42DB73EB7409104015091A3
:101C10000501241B350BE0910903F0910A03E2173B
:101C2000F307A0F42E1B3F0B2817390778F0AC01FF
:101C30004E5F5F4F2417350748F04E0F5F1F5093DC
:101C40000A03409309038193919302C0E0E0F0E01E
:101C5000CF01DF91CF911F910F910895CF93DF9323
:101C6000009709F481C0FC01329713821282A0917F
:101C70000B03B0910C03109781F420813181820F06
:101C8000931F2091090330910A032817390751F552
:101C9000F0930A03E093090367C0ED0120E030E010
:101CA000CE17DF0740F44A815B819E014115510543
:101CB000F1F0EA01F5CFD383C28340815181840FD3
:101CC000951FC817D90759F488819981840F951FEA
:101CD0000296918380838A819B81938382832115DD
:101CE000310529F4F0930C03E0930B033DC0E901A7
:101CF000FB83EA8349915991C40FD51FEC17FD0767
:101D000061F480819181840F951F0296E901998386
:101D10008883828193819B838A83E0E0F0E012963E
:101D20008D919C911397009719F0FD01DC01F7CF7D
:101D30008D919C9111979D012E5F3F4F820F931FB4
:101D40002091090330910A032817390769F4309765
:101D500029F410920C0310920B0302C0138212821A
:101D6000B0930A03A0930903DF91CF910895FB017B
:101D7000DC014150504048F001900D920020C9F71D
:101D800001C01D9241505040E0F708955058BB27C4
:101D9000AA270E94DE0E0C9458100E944A1038F0B8
:101DA0000E94511020F039F49F3F19F426F40C944E
:101DB00047100EF4E095E7FB0C944110E92F0E94C8
:101DC000691058F3BA17620773078407950720F064
:101DD00079F4A6F50C948B100EF4E0950B2EBA2F27
:101DE000A02D0B01B90190010C01CA01A001112421
:101DF000FF27591B99F0593F50F4503E68F11A16CD
:101E0000F040A22F232F342F4427585FF3CF46955D
:101E100037952795A795F0405395C9F77EF41F167F
:101E2000BA0B620B730B840BBAF09150A1F0FF0F49
:101E3000BB1F661F771F881FC2F70EC0BA0F621F35
:101E4000731F841F48F4879577956795B795F79525
:101E50009E3F08F0B0CF9395880F08F09927EE0FBA
:101E60009795879508950E941D1008F481E00895C4
:101E70000E944C0F0C9458100E94511058F00E9470
:101E80004A1040F029F45F3F29F00C9441105111A1
:101E90000C948C100C9447100E94691068F39923DD
:101EA000B1F3552391F3951B550BBB27AA27621756
:101EB0007307840738F09F5F5F4F220F331F441F63
:101EC000AA1FA9F335D00E2E3AF0E0E832D0915097
:101ED0005040E695001CCAF72BD0FE2F29D0660F84
:101EE000771F881FBB1F261737074807AB07B0E8C7
:101EF00009F0BB0B802DBF01FF2793585F4F3AF0CD
:101F00009E3F510578F00C9441100C948C105F3F6B
:101F1000E4F3983ED4F3869577956795B795F79552
:101F20009F5FC9F7880F911D9695879597F908953A
:101F3000E1E0660F771F881FBB1F621773078407D6
:101F4000BA0720F0621B730B840BBA0BEE1F88F7E5
:101F5000E09508950E94B10F6894B1110C948C1013
:101F600008950E94711088F09F5798F0B92F992713
:101F7000B751B0F0E1F0660F771F881F991F1AF074
:101F8000BA95C9F714C0B13091F00E948B10B1E03E
:101F900008950C948B10672F782F8827B85F39F03D
:101FA000B93FCCF3869577956795B395D9F73EF40D
:101FB00090958095709561957F4F8F4F9F4F0895B5
:101FC000E89409C097FB3EF49095809570956195D3
:101FD0007F4F8F4F9F4F9923A9F0F92F96E9BB2789
:101FE0009395F695879577956795B795F111F8CF05
:101FF000FAF4BB0F11F460FF1BC06F5F7F4F8F4F70
:102000009F4F16C0882311F096E911C0772321F065
:102010009EE8872F762F05C0662371F096E8862FFD
:1020200070E060E02AF09A95660F771F881FDAF754
:10203000880F9695879597F90895990F0008550F81
:10204000AA0BE0E8FEEF16161706E807F907C0F03E
:1020500012161306E407F50798F0621B730B840B46
:10206000950B39F40A2661F0232B242B252B21F420
:1020700008950A2609F4A140A6958FEF811D811DC0
:10208000089597F99F6780E870E060E008959FEFFA
:1020900080EC089500240A941616170618060906FF
:1020A000089500240A9412161306140605060895CE
:1020B000092E0394000C11F4882352F0BB0F40F456
:1020C000BF2B11F460FF04C06F5F7F4F8F4F9F4F96
:1020D000089557FD9058440F551F59F05F3F71F018
:1020E0004795880F97FB991F61F09F3F79F087957F
:1020F0000895121613061406551FF2CF4695F1DF08
:1021000008C0161617061806991FF1CF8695710597
:10211000610508940895E894BB2766277727CB01CB
:1021200097F908950E941D1008F48FEF08950E94FA
:10213000AA100C9458100E944A1038F00E945110B6
:1021400020F0952311F00C9441100C9447101124A9
:102150000C948C100E94691070F3959FC1F3950F39
:1021600050E0551F629FF001729FBB27F00DB11D1B
:10217000639FAA27F00DB11DAA1F649F6627B00DAB
:10218000A11D661F829F2227B00DA11D621F739F94
:10219000B00DA11D621F839FA00D611D221F749FA2
:1021A0003327A00D611D231F849F600D211D822FE9
:1021B000762F6A2F11249F5750409AF0F1F0882310
:1021C0004AF0EE0FFF1FBB1F661F771F881F91503D
:1021D0005040A9F79E3F510580F00C9441100C949B
:1021E0008C105F3FE4F3983ED4F38695779567951E
:1021F000B795F795E7959F5FC1F7FE2B880F911D67
:102200009695879597F908950E941D10880B990B54
:102210000895991B79E004C0991F961708F0961B42
:10222000881F7A95C9F780950895EE0FFF1F0590D6
:0A223000F491E02D0994F894FFCF1B
:10223A0000000D03200000000000220220032302F8
:10224A002F037F0200000000F4008E017D0141018E
:10225A006101360100000000F102C402EC00D8005E
:10226A00C900C800424E4F30353500526F6C6C3A87
:10227A002000205049443A20006E616E00696E6663
:08228A00006F7666002E0000D3
:00000001FF
