:100000000C947D000C94A5000C94A5000C94A50004
:100010000C94A5000C94A5000C94A5000C94A500CC
:100020000C94A5000C94A5000C94A5000C94F40766
:100030000C94A5000C94A5000C94A5000C94A500AC
:100040000C942A090C94A5000C94F0080C94B508A3
:100050000C94A5000C94A5000C94A5000C94A5008C
:100060000C94CD060C94A5005B20204F4B20205D06
:10007000204148525320696E697469616C697A61E4
:1000800074696F6E20636F6D706C65746573005B6F
:10009000204641494C205D204661696C757265209F
:1000A000696E697469616C697A696E67204148524A
:1000B000530000000000250028002B000404040465
:1000C0000404040402020202020203030303030302
:1000D00001020408102040800102040810200102DF
:1000E00004081020000000070002010000030406BD
:1000F0000000000000000000010A11241FBECFEF25
:10010000D4E0DEBFCDBF11E0A0E0B1E0E0E9FEE168
:1001100002C005900D92A835B107D9F723E0A8E5F4
:10012000B1E001C01D92AD30B207E1F710E0CDE7BC
:10013000D0E004C02197FE010E94400FCC37D107C8
:10014000C9F70E94090A0C94A80B0C940000E091D6
:10015000E702F091E8020190F081E02D682F87EE30
:1001600092E009946132F0F59091C6029111FCCFB2
:1001700091E09093C6029093C5022FEF2093C402A2
:100180001092C302260F2093C2029093C102909155
:10019000C102880F892B8093C1028091C0028130F7
:1001A00041F41092C0028091C1028093BB0085ECA3
:1001B00001C085EE8093BC008091C6028130E1F3DE
:1001C0008091C302861710F46091C302E0EAF2E066
:1001D000A7ECB2E080E0861721F091919D938F5FAC
:1001E000FACF089580E00895613208F045C09091FB
:1001F000C6029111FCCF22E02093C60221E0209399
:10020000C5022FEF2093C4021092C3026093C20272
:10021000E0E8F2E0A0EAB2E020E0621721F03191DC
:100220003D932F5FFACF1092C1022091C102880F37
:10023000822B8093C1028091C002813041F41092E0
:10024000C0028091C1028093BB0085EC01C085EEA5
:100250008093BC008091C6028230E1F38091C40299
:100260008F3F79F08091C402803241F08091C402C6
:10027000803331F094E005C091E003C092E001C00A
:1002800093E0892F08950F931F93CF93DF93C0E0DE
:10029000D0E0FC0164918C010F5F1F4F662371F069
:1002A000E091E702F091E8020190F081E02D87EE05
:1002B00092E00995C80FD91FC801EBCF8DE00E94CD
:1002C000A7008C018AE00E94A700C00FD11F8C0FED
:1002D0009D1FDF91CF911F910F91089585ED809320
:1002E000BC008091BC0084FDFCCF1092C602089532
:1002F000613298F42091C602243089F460934B0255
:10030000282FABE2B2E0FC018E2F821B861718F477
:1003100081918D93F9CF80E0089581E0089582E086
:1003200008950895E0916F0280916E02E81730F40D
:10033000F0E0E953FD4F808190E008958FEF9FEF4B
:10034000089590916F0280916E02981750F4E92FF2
:10035000F0E0E953FD4F208130E09F5F90936F0202
:1003600002C02FEF3FEFC901089580916E0290E027
:1003700020916F02821B91090895CF92DF92EF9234
:10038000FF920F931F93CF93DF937C01CB018A01E0
:1003900020917302222389F0EB016B01C40ED51E5C
:1003A000CC15DD0569F06991D701ED91FC910190C3
:1003B000F081E02DC7010995F3CF642F0E947801E9
:1003C000C801DF91CF911F910F91FF90EF90DF90C7
:1003D000CF900895CF93DF931F92CDB7DEB7698397
:1003E000209173022223D1F020917002203240F03C
:1003F00021E030E0FC013383228380E090E015C0EF
:1004000080917102E82FF0E0E058FD4F99819083D0
:100410008F5F809371028093700205C061E0CE010E
:1004200001960E94780181E090E00F90DF91CF91DA
:10043000089560917002809172020E94F4001092FF
:100440007102109270021092730208951F93CF935D
:10045000DF93162FC4E7D2E09B8121E02093730243
:10046000909372021092710210927002AC81BD8161
:10047000ED91FC9111970190F081E02D682FCD0155
:1004800009958C819D81DC01ED91FC910190F081B9
:10049000E02D612F09958C819D810E94190281E0D8
:1004A000DF91CF911F910895CF93DF93C4E7D2E0FE
:1004B0008B8191E09093730280937202109271028B
:1004C000109270028C819D81DC01ED91FC91019074
:1004D000F081E02D60E009958C819D810E941902D8
:1004E00061E08B810E94B20010926F0280936E02D5
:1004F0008C819D81DC01ED91FC910680F781E02DDE
:100500000995DF91CF9108950F931F93CF93DF93B8
:10051000FC01A685B7858D01005C1F4FE80188812D
:10052000998101968F739927AD014E5B5F4FEA0168
:100530002881398128173907D1F3E80128813981C9
:10054000A20FB31F6C93A685B785A05CBF4F119611
:100550009C938E93A689B7892C9181E090E0078CBB
:1005600002C0880F991F0A94E2F7822B8C9381E0D6
:1005700081A30488F589E02D80818064808381E0F7
:1005800090E0DF91CF911F910F910895FC0181A11F
:10059000882329F0A489B5898C9186FFFBCF11A20D
:1005A0000895FC01A485B585FD01E05CFF4F208125
:1005B00031813296808191812817390779F08081C5
:1005C0009181A80FB91F8C91208131812F5F3F4FFE
:1005D0002F7333273183208390E008958FEF9FEFAF
:1005E0000895DC011C96ED91FC911D97DF01A05C44
:1005F000BF4F2D913C91119712968D919C9111971F
:100600002817390739F08D919C91E80FF91F8081E7
:1006100090E008958FEF9FEF0895FC0124853585C4
:10062000F901E05CFF4F8081918132962081318118
:10063000821B930B8F73992708950895CF92DF92B1
:10064000EF92FF920F931F93CF93DF936C01EB0117
:100650007B01E40EF51E00E010E0CE15DF0561F031
:100660006991D601ED91FC910190F081E02DC601D8
:100670000995080F191FF1CFC801DF91CF911F9184
:100680000F91FF90EF90DF90CF90089590E0FC01E4
:10069000EC51FF4F2491FC01E053FF4F3491FC01DA
:1006A000E454FF4FE491EE2309F43CC0222339F1D6
:1006B000233091F038F42130A9F0223001F584B5CF
:1006C0008F7D12C0263091F02730A1F02430B9F48C
:1006D000809180008F7D03C0809180008F77809310
:1006E00080000DC084B58F7784BD09C08091B000B3
:1006F0008F7703C08091B0008F7D8093B000F0E0D1
:10070000EE0FFF1FEE54FF4FA591B4919FB7F894E1
:10071000611104C08C913095382302C0EC913E2BBE
:100720003C939FBF08951092C60281E08093C5025A
:100730001092C00261E082E10E94460361E083E121
:100740000E944603E9EBF0E080818E7F8083808108
:100750008D7F808388E48093B80085E48093BC001B
:100760000895789484B5826084BD84B5816084BD29
:1007700085B5826085BD85B5816085BDEEE6F0E01A
:10078000808181608083E1E8F0E010828081826076
:100790008083808181608083E0E8F0E080818160F7
:1007A0008083E1EBF0E0808184608083E0EBF0E027
:1007B000808181608083EAE7F0E0808184608083CB
:1007C0008081826080838081816080838081806875
:1007D00080831092C10008953FB7F89480916D0115
:1007E00090916E01A0916F01B091700126B5A89B08
:1007F00005C02F3F19F00196A11DB11D3FBFBA2FB3
:10080000A92F982F8827820F911DA11DB11DBC0112
:10081000CD0142E0660F771F881F991F4A95D1F7D7
:100820000895CF92DF92EF92FF92CF93DF936B0107
:100830007C010E94EC03EB01C114D104E104F1043A
:1008400079F00E94EC036C1B7D0B683E7340A0F3B3
:1008500081E0C81AD108E108F108C851DC4FECCF9B
:10086000DF91CF91FF90EF90DF90CF900895E4E774
:10087000F2E082879387682F8DE390E00E94260242
:100880006EE170E080E090E00C9411042FB7F894D2
:100890006091690170916A0180916B0190916C0186
:1008A0002FBF089508950895009799F0FC010190D5
:1008B0000020E9F73197AF01481B590BE091E7029F
:1008C000F091E8020280F381E02DBC0187EE92E016
:1008D000099480E090E008958F929F92AF92BF922A
:1008E000EF92FF920F931F93CF93DF93CDB7DEB7B5
:1008F000A1970FB6F894DEBF0FBECDBF162F042F01
:1009000019A2423008F40AE07E0121E2E20EF11C55
:10091000802E912CA12CB12C612FA50194010E9455
:10092000AB0B029F1019112481E0E81AF1081A306C
:1009300014F4105D01C0195CF7011083122F732F9E
:10094000CA01232B242B252B39F7C7010E945404FD
:10095000A1960FB6F894DEBF0FBECDBFDF91CF9149
:100960001F910F91FF90EF90BF90AF909F908F904D
:1009700008954F925F926F927F928F929F92AF9263
:10098000BF92CF92DF92EF92FF92CF93DF936B01F2
:100990007C01B42E9B01AC010E943B0F882319F00F
:1009A00084E391E027C026013701E89477F82FEF20
:1009B0003FEF4FE75FE7C301B2010E943B0F811198
:1009C0000DC02FEF3FEF4FE75FE7C301B2010E9479
:1009D0006A0D18161CF488E391E00CC02FEF3FEF6E
:1009E0004FE75FE4C701B6010E94C90E181694F4E0
:1009F0008CE391E0DF91CF91FF90EF90DF90CF906B
:100A0000BF90AF909F908F907F906F905F904F902E
:100A10000C9454042FEF3FEF4FE75FECC701B60192
:100A20000E946A0D87FDE4CF20E030E0A901C701F4
:100A3000B6010E946A0D87FF09C08DE20E94A700DF
:100A4000EC01F7FAF094F7F8F09402C0C0E0D0E0BF
:100A5000A12C60E070E080E09FE3BA1441F020E058
:100A600030E040E251E40E946F0DA394F6CFA7015D
:100A700096010E94FE0C6B017C010E94E80D2B0187
:100A80003C014AE00E946C04C80FD91FBB2009F446
:100A90004EC0C301B2010E94170E9B01AC01C701F9
:100AA000B6010E94FD0C2B013C0180E491E00E9404
:100AB0005404C80FD91FFB2C20E030E040E251E481
:100AC000C301B2010E94CE0E2B013C010E94E10D38
:100AD0004B01770FAA08BB08B7FE13C08DE20E9436
:100AE000A7006C0188279927DC0188199909AA09B0
:100AF000BB094AE0BC01CD010E946C048C0D9D1D18
:100B000005C04AE0C501B4010E946C04C80FD91F9A
:100B1000C501B4010E94190E9B01AC01C301B201D1
:100B20000E94FD0C2B013C01FA94F110C5CFCE01BF
:100B3000DF91CF91FF90EF90DF90CF90BF90AF907B
:100B40009F908F907F906F905F904F9008958F92BD
:100B50009F92AF92BF92CF92DF92EF92FF920F934C
:100B60001F93CF93DF93CDB7DEB762970FB6F8949C
:100B7000DEBF0FBECDBF6C018B0184E2DB011D9295
:100B80008A95E9F784E290E0A0E0B0E0FB01808381
:100B90009183A283B383F60186819781A085B18575
:100BA000FB0184839583A683B78383E090E0A0E074
:100BB000B0E080879187A287B3870E944604D8015E
:100BC00050966D937D938D939C935397FE01319630
:100BD0008CE0DF011D928A95E9F77E01BDE0EB0E06
:100BE000F11C86E0F70111928A95E9F7D601139678
:100BF0008C91139791E090937302809372021092FC
:100C000071021092700214968D919C911597DC01DF
:100C1000ED91FC910190F081E02D6AE10995F601DA
:100C2000848195810E94190266E0D60113968C9109
:100C30000E94B20010926F0280936E025E01B3E1D7
:100C4000AB0EB11CF60184819581DC01ED91FC9124
:100C50000680F781E02D0995F70181937F01EA1560
:100C6000FB0581F76D857E85072E000C880B990B9F
:100C70000E94190E20E030E040E85DE30E94CE0EB5
:100C80004B015C016F857889072E000C880B990B4E
:100C90000E94190E20E030E040E85DE30E94CE0E95
:100CA0006B017C0169897A89072E000C880B990BEE
:100CB0000E94190E20E030E040E85DE30E94CE0E75
:100CC000D80154968D929D92AD92BC925797F8019F
:100CD000C08ED18EE28EF38E5C966D937D938D9354
:100CE0009C935F9781E062960FB6F894DEBF0FBECB
:100CF000CDBFDF91CF911F910F91FF90EF90DF90CB
:100D0000CF90BF90AF909F908F9008950F931F93B7
:100D1000CF93DF938C01EB0188E2FB0111928A955E
:100D2000E9F74BE050E062E471E0CE010E94EE0C86
:100D30001B8681E090E0A0E0B0E08C879D87AE87C5
:100D4000BF87F80186819781A085B185888B998BB3
:100D5000AA8BBB8B83E090E0A0E0B0E08C8B9D8BF6
:100D6000AE8BBF8B1CA21DA21EA21FA2188E198EB5
:100D70001A8E1B8E1C8E1D8E1E8E1F8E8AE097ED86
:100D8000A3E2BCE388A399A3AAA3BBA3DF91CF915D
:100D90001F910F9108950C94650C1F920F920FB63E
:100DA0000F9211242F933F934F935F936F937F93F1
:100DB0008F939F93AF93BF93EF93FF938091B9006D
:100DC000887F803609F49CC068F5883209F45BC0DE
:100DD00090F4803109F454C038F4882309F4EFC04A
:100DE000883009F44DC0EFC0883109F44CC080321E
:100DF00009F45DC0E8C0803409F468C048F4803369
:100E000009F455C0883309F0DEC08093C402D1C014
:100E1000803509F44FC0883509F45DC0883409F085
:100E2000D2C0CFC0883909F4C0C0A8F4883709F40B
:100E300067C038F4883609F463C0803709F460C0AD
:100E4000C2C0883809F4B1C0803909F45FC0803865
:100E500009F0B9C05BC0803B09F481C038F4803A26
:100E600009F466C0883A09F47AC0ADC0803C09F440
:100E7000A0C0883C09F49DC0883B09F483C0A3C08E
:100E80008091C10210C09091C3028091C202981754
:100E900070F5E091C30281E08E0F8093C302F0E011
:100EA000E056FD4F80818093BB0085EC7FC080932E
:100EB000C40287C0E091C30281E08E0F8093C30219
:100EC0008091BB00F0E0E056FD4F80839091C3021B
:100ED0008091C20267C0E091C30281E08E0F8093CF
:100EE000C3028091BB00F0E0E056FD4F808380910B
:100EF000C502811166C081E08093C00284EA5AC0B5
:100F000083E08093C60210926D02CFCF80916D0274
:100F1000803208F04AC0E0916D0281E08E0F80932C
:100F20006D028091BB00F0E0E35BFD4F8083BDCF9D
:100F300080916D02803230F4E0916D02F0E0E35B6D
:100F4000FD4F10820E946E0160916D0270E08DE491
:100F500092E0E0E0F0E0099510926D022AC084E092
:100F60008093C60210924C0210924B02E0E0F0E037
:100F7000099580914B02811105C081E080934B025D
:100F800010922B02E0914C0281E08E0F80934C0274
:100F9000F0E0E55DFD4F80818093BB0090914C02B5
:100FA00080914B02981708F480CF85E88093BC00AD
:100FB0000AC085EC8093BC001092C60204C0109257
:100FC000C4020E946E01FF91EF91BF91AF919F917A
:100FD0008F917F916F915F914F913F912F910F90E2
:100FE0000FBE0F901F9018951F920F920FB60F9281
:100FF00011242F933F934F935F936F937F938F931E
:101000009F93AF93BF93EF93FF938091050287FF68
:1010100005C010928500109284001BC0209105022B
:10102000022E000C330B80912A0290E0281739071A
:1010300084F480910502082E000C990BFC01EE0F40
:10104000FF1F8E0F9F1FFC01EA5FFD4F808186FD11
:1010500015C0809105028F5F8093050220910502E3
:10106000022E000C330B80912A0290E028173907DA
:10107000C4F4809105028C3064F113C080910502A4
:10108000082E000C990BFC01EE0FFF1F8E0F9F1F07
:10109000FC01EA5FFD4F808160E08F730E94460390
:1010A000D8CF8091840090918500049680349C492B
:1010B00018F480E49CE905C080918400909185003B
:1010C000049690938900809388008FEF80930502A7
:1010D0003BC0209184003091850080910502082E4C
:1010E000000C990BFC01EE0FFF1F8E0F9F1FFC01E0
:1010F000EA5FFD4F81819281820F931F9093890057
:101100008093880080910502082E000C990BFC0149
:10111000EE0FFF1F8E0F9F1FFC01EA5FFD4F8081C6
:1011200086FF12C080910502082E000C990BFC016D
:10113000EE0FFF1F8E0F9F1FFC01EA5FFD4F8081A6
:1011400061E08F730E944603FF91EF91BF91AF91D1
:101150009F918F917F916F915F914F913F912F91CF
:101160000F900FBE0F901F9018951F920F920FB601
:101170000F9211242F933F938F939F93EF93FF939D
:101180002091B1013091B2018091B3019091B401ED
:101190002817390731F48091C1008F7D8093C100F9
:1011A00014C0E091B301F091B401EF58FE4F2081DB
:1011B0008091B3019091B40101968F739927909318
:1011C000B4018093B3012093C600FF91EF919F91EA
:1011D0008F913F912F910F900FBE0F901F901895F8
:1011E0001F920F920FB60F9211242F934F935F937C
:1011F0008F939F93EF93FF938091C00082FD1CC05B
:101200002091C6008091F5019091F6014091F7017F
:101210005091F80101968F7399274817590771F07B
:10122000E091F501F091F601EB54FE4F208390938D
:10123000F6018093F50102C08091C600FF91EF9105
:101240009F918F915F914F912F910F900FBE0F90B3
:101250001F9018951F920F920FB60F9211242F9383
:101260003F938F939F93AF93BF9380916901909128
:101270006A01A0916B01B0916C013091680123E08B
:10128000230F2D3720F40196A11DB11D05C026E8BE
:10129000230F0296A11DB11D20936801809369015F
:1012A00090936A01A0936B01B0936C0180916D01E2
:1012B00090916E01A0916F01B09170010196A11DF6
:1012C000B11D80936D0190936E01A0936F01B09357
:1012D0007001BF91AF919F918F913F912F910F908E
:1012E0000FBE0F901F901895FC0190912A029C3020
:1012F000A0F481E0890F80932A029083892F90E0E7
:10130000FC01EE0FFF1F8E0F9F1FFC01EA5FFD4FD8
:1013100088EB9BE09283818308958FEF808308950B
:10132000E9EFF1E01382128288EE93E0A0E0B0E0F2
:1013300084839583A683B78388E291E09183808339
:101340000895E7EEF2E01382128288EE93E0A0E0C7
:10135000B0E084839583A683B78388E191E091838D
:10136000808385EB91E09587848781E791E097877B
:10137000868785EC90E0918B808B84EC90E0938B5A
:10138000828B80EC90E0958B848B81EC90E0978B46
:10139000868B82EC90E0918F808F86EC90E0938F2B
:1013A000828F84E0848F83E0858F87E0868F85E05D
:1013B000878F81E080A30895E4E7F2E08AE091E07E
:1013C0009183808387E390E0A0E0B0E086839783F9
:1013D000A087B18788E2838389EF91E09583848336
:1013E000089581E691E00E9474098EE591E00E94E3
:1013F00074098BE591E00E94740988E591E00C94F2
:1014000074090E9490090E94A1090E94DC090C94B1
:10141000F109CF93DF93CDB7DEB7AC970FB6F89451
:10142000DEBF0FBECDBF0E94B103E091FB02F09181
:10143000FC0281E090E09C010090070302C0220FB3
:10144000331F0A94E2F72083E091F702F091F8024B
:101450001082E091F902F091FA022FEC20831092B1
:101460000803E091FD02F091FE0240819C01009092
:10147000030302C0220F331F0A94E2F7242B2083B8
:10148000E091FD02F091FE0240819C010090040376
:1014900002C0220F331F0A94E2F7242B2083E0912D
:1014A000FD02F091FE0240819C010090050302C004
:1014B000220F331F0A94E2F7242B2083E091FD02D0
:1014C000F091FE0220810090060302C0880F991F50
:1014D0000A94E2F780958223808368EE73E080E0CF
:1014E00090E00E94110410926F0210926E0210920E
:1014F0007102109270020E9493030E945402803A7B
:1015000071F480E090E00E94370460E28FE390E0A5
:101510000E9426026EE170E080E090E00FC068EE6D
:1015200073E080E090E00E9411040E945402803A2F
:1015300041F38FE890E00E9443015DC00E941104D6
:101540000E945402803A29F06AE070E080E090E066
:10155000F5CF62E370E080E090E00E94110460E06B
:101560008EE390E00E9426026AE070E080E090E066
:101570000E94110460E087E090E00E94260260E093
:101580008FE390E00E9426026AE070E080E090E045
:101590000E9411048CE090E00E94370464E170E046
:1015A00080E090E00E94110400917E0210917F0281
:1015B00080E090E00E94370469E170E080E090E014
:1015C0000E94110460E087E090E00E94260260E83B
:1015D0008FE390E00E9426026AE070E080E090E0F5
:1015E0000E941104C8010E94370464E170E080E0A9
:1015F00090E00E94110488E690E00E944301812C53
:10160000912C540119A61AA61BA61CA6C12CD12CDC
:101610007601BE016F5F7F4F84E792E00E94A705CD
:101620000E9446046DA37EA38FA398A78D8D9E8DE7
:10163000AF8DB8A18093640190936501A09366017A
:10164000B093670189E491E00E94540460916401C1
:1016500070916501809166019091670142E00E945E
:10166000B90480E591E00E94540410916401009156
:10167000650130906601209067016DA17EA18FA168
:1016800098A5681979098A099B090E94190E4B01CE
:101690005C019B01AC01612F702F832D922D0E9464
:1016A000CE0E9B01AC01C701B6010E94FE0C6B017E
:1016B0007C0120E030E040EA50EC612F702F832D58
:1016C000922D0E94CE0E20E030E0A9010E94FE0C77
:1016D0002B013C0122E539E44DE959EBC701B60184
:1016E0000E94CE0EA30192010E94FE0C2B013C0130
:1016F00029A53AA54BA55CA5612F702F832D922DAE
:101700000E94FD0CA50194010E946F0D20E030E0C5
:1017100044EB52E40E94CE0EA30192010E94FE0C03
:1017200042E00E94B9048DE00E94A7008AE00E9476
:10173000A70062E370E080E090E00E9411048DA0B9
:101740009EA0AFA0B8A419A70AA73BA62CA661CF5C
:10175000F8940C94460FA1E21A2EAA1BBB1BFD01A4
:101760000DC0AA1FBB1FEE1FFF1FA217B307E40780
:10177000F50720F0A21BB30BE40BF50B661F771FD8
:10178000881F991F1A9469F76095709580959095B8
:101790009B01AC01BD01CF0108950F931F93CF931F
:1017A000DF938230910510F482E090E0E0910B032A
:1017B000F0910C0320E030E0A0E0B0E0309719F1A8
:1017C000408151810281138148175907C8F084175D
:1017D000950769F4109731F012960C9312971396AF
:1017E0001C9327C000930B0310930C0322C02115F8
:1017F000310519F04217530718F49A01BD01EF01A2
:10180000DF01F801DBCF21153105F9F0281B390B79
:101810002430310580F48A819B816115710521F0A6
:10182000FB019383828304C090930C0380930B038A
:10183000FE01329644C0FE01E20FF31F81939193A3
:1018400022503109398328833AC02091090330910D
:101850000A03232B41F420910201309103013093BC
:101860000A03209309032091000130910101211501
:10187000310541F42DB73EB7409104015091050167
:10188000241B350BE0910903F0910A03E217F307DB
:10189000A0F42E1B3F0B2817390778F0AC014E5FE0
:1018A0005F4F2417350748F04E0F5F1F50930A0310
:1018B000409309038193919302C0E0E0F0E0CF01EF
:1018C000DF91CF911F910F910895CF93DF930097F0
:1018D00009F481C0FC01329713821282A0910B039C
:1018E000B0910C03109781F420813181820F931FF6
:1018F0002091090330910A032817390751F5F09315
:101900000A03E093090367C0ED0120E030E0CE1741
:10191000DF0740F44A815B819E0141155105F1F0DA
:10192000EA01F5CFD383C28340815181840F951F93
:10193000C817D90759F488819981840F951F029699
:10194000918380838A819B819383828321153105D2
:1019500029F4F0930C03E0930B033DC0E901FB83F2
:10196000EA8349915991C40FD51FEC17FD0761F423
:1019700080819181840F951F0296E9019983888364
:10198000828193819B838A83E0E0F0E012968D91BF
:101990009C911397009719F0FD01DC01F7CF8D9111
:1019A0009C9111979D012E5F3F4F820F931F2091B5
:1019B000090330910A032817390769F4309729F48D
:1019C00010920C0310920B0302C013821282B09388
:1019D0000A03A0930903DF91CF910895FB01DC0175
:1019E0004150504048F001900D920020C9F701C0CD
:1019F0001D9241505040E0F708955058BB27AA2748
:101A00000E94150D0C948F0E0E94810E38F00E94DA
:101A1000880E20F039F49F3F19F426F40C947E0EC2
:101A20000EF4E095E7FB0C94780EE92F0E94A00ECF
:101A300058F3BA17620773078407950720F079F403
:101A4000A6F50C94C20E0EF4E0950B2EBA2FA02D25
:101A50000B01B90190010C01CA01A0011124FF275B
:101A6000591B99F0593F50F4503E68F11A16F04056
:101A7000A22F232F342F4427585FF3CF4695379555
:101A80002795A795F0405395C9F77EF41F16BA0B1A
:101A9000620B730B840BBAF09150A1F0FF0FBB1FC8
:101AA000661F771F881FC2F70EC0BA0F621F731F11
:101AB000841F48F4879577956795B795F7959E3F6E
:101AC00008F0B0CF9395880F08F09927EE0F9795FF
:101AD000879508950E94540E08F481E008950E94AD
:101AE000830D0C948F0E0E94880E58F00E94810E78
:101AF00040F029F45F3F29F00C94780E51110C94BA
:101B0000C30E0C947E0E0E94A00E68F39923B1F3CD
:101B1000552391F3951B550BBB27AA276217730713
:101B2000840738F09F5F5F4F220F331F441FAA1FA7
:101B3000A9F335D00E2E3AF0E0E832D09150504063
:101B4000E695001CCAF72BD0FE2F29D0660F771F11
:101B5000881FBB1F261737074807AB07B0E809F0F7
:101B6000BB0B802DBF01FF2793585F4F3AF09E3F7C
:101B7000510578F00C94780E0C94C30E5F3FE4F39B
:101B8000983ED4F3869577956795B795F7959F5FBF
:101B9000C9F7880F911D9695879597F90895E1E00B
:101BA000660F771F881FBB1F621773078407BA076A
:101BB00020F0621B730B840BBA0BEE1F88F7E095C5
:101BC00008950E94E80D6894B1110C94C30E089515
:101BD0000E94A80E88F09F5798F0B92F9927B75107
:101BE000B0F0E1F0660F771F881F991F1AF0BA95C1
:101BF000C9F714C0B13091F00E94C20EB1E008954F
:101C00000C94C20E672F782F8827B85F39F0B93F40
:101C1000CCF3869577956795B395D9F73EF4909573
:101C20008095709561957F4F8F4F9F4F0895E894F1
:101C300009C097FB3EF490958095709561957F4F14
:101C40008F4F9F4F9923A9F0F92F96E9BB279395C2
:101C5000F695879577956795B795F111F8CFFAF4D2
:101C6000BB0F11F460FF1BC06F5F7F4F8F4F9F4F03
:101C700016C0882311F096E911C0772321F09EE861
:101C8000872F762F05C0662371F096E8862F70E0C7
:101C900060E02AF09A95660F771F881FDAF7880FA1
:101CA0009695879597F90895990F0008550FAA0BF7
:101CB000E0E8FEEF16161706E807F907C0F012165F
:101CC0001306E407F50798F0621B730B840B950B62
:101CD00039F40A2661F0232B242B252B21F40895B7
:101CE0000A2609F4A140A6958FEF811D811D089554
:101CF00097F99F6780E870E060E008959FEF80ECBF
:101D0000089500240A941616170618060906089561
:101D100000240A9412161306140605060895092EC7
:101D20000394000C11F4882352F0BB0F40F4BF2B36
:101D300011F460FF04C06F5F7F4F8F4F9F4F089576
:101D400057FD9058440F551F59F05F3F71F047956C
:101D5000880F97FB991F61F09F3F79F08795089551
:101D6000121613061406551FF2CF4695F1DF08C070
:101D7000161617061806991FF1CF8695710561058D
:101D800008940895E894BB2766277727CB0197F935
:101D900008950E94540E08F48FEF08950E94E10EFA
:101DA0000C948F0E0E94810E38F00E94880E20F055
:101DB000952311F00C94780E0C947E0E11240C9443
:101DC000C30E0E94A00E70F3959FC1F3950F50E0D3
:101DD000551F629FF001729FBB27F00DB11D639FDD
:101DE000AA27F00DB11DAA1F649F6627B00DA11D83
:101DF000661F829F2227B00DA11D621F739FB00D29
:101E0000A11D621F839FA00D611D221F749F332798
:101E1000A00D611D231F849F600D211D822F762F31
:101E20006A2F11249F5750409AF0F1F088234AF00E
:101E3000EE0FFF1FBB1F661F771F881F915050407A
:101E4000A9F79E3F510580F00C94780E0C94C30EB8
:101E50005F3FE4F3983ED4F3869577956795B79501
:101E6000F795E7959F5FC1F7FE2B880F911D96951B
:101E7000879597F908950E94540E880B990B089541
:101E8000EE0FFF1F0590F491E02D0994F894FFCF19
:101E900000000D032000000000005204CB06530494
:101EA000A70586060000000084021E030D03D10270
:101EB000F102C60200000000EA01BD01B501A10166
:101EC000920191016E616E00696E66006F76660028
:101ED0002E00424E4F30353500526F6C6C3A200068
:081EE000205049443A200000A3
:00000001FF
